{
  "_format": "hh-sol-artifact-1",
  "contractName": "QuizardFactory",
  "sourceName": "contracts/QuizardFactory.sol",
  "abi": [
    {
      "inputs": [],
      "stateMutability": "nonpayable",
      "type": "constructor"
    },
    {
      "anonymous": false,
      "inputs": [
        {
          "indexed": true,
          "internalType": "address",
          "name": "teacher",
          "type": "address"
        },
        {
          "indexed": true,
          "internalType": "address",
          "name": "quizard",
          "type": "address"
        }
      ],
      "name": "QuizardCreated",
      "type": "event"
    },
    {
      "inputs": [
        {
          "internalType": "string",
          "name": "name",
          "type": "string"
        },
        {
          "internalType": "string",
          "name": "description",
          "type": "string"
        },
        {
          "internalType": "uint256",
          "name": "passingScore",
          "type": "uint256"
        },
        {
          "internalType": "uint256",
          "name": "duration",
          "type": "uint256"
        },
        {
          "internalType": "uint256",
          "name": "startTime",
          "type": "uint256"
        },
        {
          "internalType": "uint256",
          "name": "endTime",
          "type": "uint256"
        },
        {
          "internalType": "string[]",
          "name": "questions",
          "type": "string[]"
        },
        {
          "internalType": "string[][]",
          "name": "answers",
          "type": "string[][]"
        },
        {
          "internalType": "uint256[]",
          "name": "correctAnswers",
          "type": "uint256[]"
        }
      ],
      "name": "createQuizard",
      "outputs": [
        {
          "internalType": "address",
          "name": "",
          "type": "address"
        }
      ],
      "stateMutability": "nonpayable",
      "type": "function"
    },
    {
      "inputs": [],
      "name": "getOwner",
      "outputs": [
        {
          "internalType": "address",
          "name": "",
          "type": "address"
        }
      ],
      "stateMutability": "view",
      "type": "function"
    },
    {
      "inputs": [],
      "name": "getQuizardManager",
      "outputs": [
        {
          "internalType": "address",
          "name": "",
          "type": "address"
        }
      ],
      "stateMutability": "view",
      "type": "function"
    },
    {
      "inputs": [
        {
          "internalType": "address",
          "name": "owner",
          "type": "address"
        }
      ],
      "name": "setOwner",
      "outputs": [],
      "stateMutability": "nonpayable",
      "type": "function"
    },
    {
      "inputs": [
        {
          "internalType": "address",
          "name": "quizardManager",
          "type": "address"
        }
      ],
      "name": "setQuizardManager",
      "outputs": [],
      "stateMutability": "nonpayable",
      "type": "function"
    }
  ],
  "bytecode": "0x608060405234801561001057600080fd5b50336000806101000a81548173ffffffffffffffffffffffffffffffffffffffff021916908373ffffffffffffffffffffffffffffffffffffffff1602179055506149de806100606000396000f3fe60806040523480156200001157600080fd5b50600436106200005e5760003560e01c806313af40351462000063578063758932cd1462000083578063893d20e814620000a3578063a80a088e14620000c5578063f1957f3314620000e7575b600080fd5b6200008160048036038101906200007b919062000621565b6200011d565b005b620000a160048036038101906200009b919062000621565b620001f1565b005b620000ad620002c6565b604051620000bc919062000664565b60405180910390f35b620000cf620002ef565b604051620000de919062000664565b60405180910390f35b620001056004803603810190620000ff919062000ae7565b62000319565b60405162000114919062000664565b60405180910390f35b60008054906101000a900473ffffffffffffffffffffffffffffffffffffffff1673ffffffffffffffffffffffffffffffffffffffff163373ffffffffffffffffffffffffffffffffffffffff1614620001ae576040517f08c379a0000000000000000000000000000000000000000000000000000000008152600401620001a59062000ce8565b60405180910390fd5b806000806101000a81548173ffffffffffffffffffffffffffffffffffffffff021916908373ffffffffffffffffffffffffffffffffffffffff16021790555050565b60008054906101000a900473ffffffffffffffffffffffffffffffffffffffff1673ffffffffffffffffffffffffffffffffffffffff163373ffffffffffffffffffffffffffffffffffffffff161462000282576040517f08c379a0000000000000000000000000000000000000000000000000000000008152600401620002799062000ce8565b60405180910390fd5b80600160006101000a81548173ffffffffffffffffffffffffffffffffffffffff021916908373ffffffffffffffffffffffffffffffffffffffff16021790555050565b60008060009054906101000a900473ffffffffffffffffffffffffffffffffffffffff16905090565b6000600160009054906101000a900473ffffffffffffffffffffffffffffffffffffffff16905090565b60008073ffffffffffffffffffffffffffffffffffffffff16600160009054906101000a900473ffffffffffffffffffffffffffffffffffffffff1673ffffffffffffffffffffffffffffffffffffffff1603620003ae576040517f08c379a0000000000000000000000000000000000000000000000000000000008152600401620003a59062000d5a565b60405180910390fd5b6000339050600030600160009054906101000a900473ffffffffffffffffffffffffffffffffffffffff1683604051620003e8906200059a565b620003f69392919062000d7c565b604051809103906000f08015801562000413573d6000803e3d6000fd5b5090506000600160009054906101000a900473ffffffffffffffffffffffffffffffffffffffff1690508073ffffffffffffffffffffffffffffffffffffffff16639004d1ad84846040518363ffffffff1660e01b81526004016200047a92919062000db9565b600060405180830381600087803b1580156200049557600080fd5b505af1158015620004aa573d6000803e3d6000fd5b505050508173ffffffffffffffffffffffffffffffffffffffff166355ab4a228e8e8e8e8e8e8e8e8e6040518a63ffffffff1660e01b8152600401620004f999989796959493929190620011c1565b600060405180830381600087803b1580156200051457600080fd5b505af115801562000529573d6000803e3d6000fd5b505050508173ffffffffffffffffffffffffffffffffffffffff168373ffffffffffffffffffffffffffffffffffffffff167f5ee4cc238ca994414889020a5a5f979b6310c4c4f19a92b667b2da17ab1eb03a60405160405180910390a38193505050509998505050505050505050565b613725806200128483390190565b6000604051905090565b600080fd5b600080fd5b600073ffffffffffffffffffffffffffffffffffffffff82169050919050565b6000620005e982620005bc565b9050919050565b620005fb81620005dc565b81146200060757600080fd5b50565b6000813590506200061b81620005f0565b92915050565b6000602082840312156200063a5762000639620005b2565b5b60006200064a848285016200060a565b91505092915050565b6200065e81620005dc565b82525050565b60006020820190506200067b600083018462000653565b92915050565b600080fd5b600080fd5b6000601f19601f8301169050919050565b7f4e487b7100000000000000000000000000000000000000000000000000000000600052604160045260246000fd5b620006d6826200068b565b810181811067ffffffffffffffff82111715620006f857620006f76200069c565b5b80604052505050565b60006200070d620005a8565b90506200071b8282620006cb565b919050565b600067ffffffffffffffff8211156200073e576200073d6200069c565b5b62000749826200068b565b9050602081019050919050565b82818337600083830152505050565b60006200077c620007768462000720565b62000701565b9050828152602081018484840111156200079b576200079a62000686565b5b620007a884828562000756565b509392505050565b600082601f830112620007c857620007c762000681565b5b8135620007da84826020860162000765565b91505092915050565b6000819050919050565b620007f881620007e3565b81146200080457600080fd5b50565b6000813590506200081881620007ed565b92915050565b600067ffffffffffffffff8211156200083c576200083b6200069c565b5b602082029050602081019050919050565b600080fd5b60006200086962000863846200081e565b62000701565b905080838252602082019050602084028301858111156200088f576200088e6200084d565b5b835b81811015620008dd57803567ffffffffffffffff811115620008b857620008b762000681565b5b808601620008c78982620007b0565b8552602085019450505060208101905062000891565b5050509392505050565b600082601f830112620008ff57620008fe62000681565b5b81356200091184826020860162000852565b91505092915050565b600067ffffffffffffffff8211156200093857620009376200069c565b5b602082029050602081019050919050565b6000620009606200095a846200091a565b62000701565b905080838252602082019050602084028301858111156200098657620009856200084d565b5b835b81811015620009d457803567ffffffffffffffff811115620009af57620009ae62000681565b5b808601620009be8982620008e7565b8552602085019450505060208101905062000988565b5050509392505050565b600082601f830112620009f657620009f562000681565b5b813562000a0884826020860162000949565b91505092915050565b600067ffffffffffffffff82111562000a2f5762000a2e6200069c565b5b602082029050602081019050919050565b600062000a5762000a518462000a11565b62000701565b9050808382526020820190506020840283018581111562000a7d5762000a7c6200084d565b5b835b8181101562000aaa578062000a95888262000807565b84526020840193505060208101905062000a7f565b5050509392505050565b600082601f83011262000acc5762000acb62000681565b5b813562000ade84826020860162000a40565b91505092915050565b60008060008060008060008060006101208a8c03121562000b0d5762000b0c620005b2565b5b60008a013567ffffffffffffffff81111562000b2e5762000b2d620005b7565b5b62000b3c8c828d01620007b0565b99505060208a013567ffffffffffffffff81111562000b605762000b5f620005b7565b5b62000b6e8c828d01620007b0565b985050604062000b818c828d0162000807565b975050606062000b948c828d0162000807565b965050608062000ba78c828d0162000807565b95505060a062000bba8c828d0162000807565b94505060c08a013567ffffffffffffffff81111562000bde5762000bdd620005b7565b5b62000bec8c828d01620008e7565b93505060e08a013567ffffffffffffffff81111562000c105762000c0f620005b7565b5b62000c1e8c828d01620009de565b9250506101008a013567ffffffffffffffff81111562000c435762000c42620005b7565b5b62000c518c828d0162000ab4565b9150509295985092959850929598565b600082825260208201905092915050565b7f4f6e6c79206f776e65722063616e2063616c6c20746869732066756e6374696f60008201527f6e00000000000000000000000000000000000000000000000000000000000000602082015250565b600062000cd060218362000c61565b915062000cdd8262000c72565b604082019050919050565b6000602082019050818103600083015262000d038162000cc1565b9050919050565b7f5175697a6172644d616e61676572206e6f742073657400000000000000000000600082015250565b600062000d4260168362000c61565b915062000d4f8262000d0a565b602082019050919050565b6000602082019050818103600083015262000d758162000d33565b9050919050565b600060608201905062000d93600083018662000653565b62000da2602083018562000653565b62000db1604083018462000653565b949350505050565b600060408201905062000dd0600083018562000653565b62000ddf602083018462000653565b9392505050565b600081519050919050565b60005b8381101562000e1157808201518184015260208101905062000df4565b60008484015250505050565b600062000e2a8262000de6565b62000e36818562000c61565b935062000e4881856020860162000df1565b62000e53816200068b565b840191505092915050565b62000e6981620007e3565b82525050565b600081519050919050565b600082825260208201905092915050565b6000819050602082019050919050565b600082825260208201905092915050565b600062000eb98262000de6565b62000ec5818562000e9b565b935062000ed781856020860162000df1565b62000ee2816200068b565b840191505092915050565b600062000efb838362000eac565b905092915050565b6000602082019050919050565b600062000f1d8262000e6f565b62000f29818562000e7a565b93508360208202850162000f3d8562000e8b565b8060005b8581101562000f7f578484038952815162000f5d858262000eed565b945062000f6a8362000f03565b925060208a0199505060018101905062000f41565b50829750879550505050505092915050565b600081519050919050565b600082825260208201905092915050565b6000819050602082019050919050565b600082825260208201905092915050565b600062000fdb8262000e6f565b62000fe7818562000fbd565b93508360208202850162000ffb8562000e8b565b8060005b858110156200103d57848403895281516200101b858262000eed565b9450620010288362000f03565b925060208a0199505060018101905062000fff565b50829750879550505050505092915050565b60006200105d838362000fce565b905092915050565b6000602082019050919050565b60006200107f8262000f91565b6200108b818562000f9c565b9350836020820285016200109f8562000fad565b8060005b85811015620010e15784840389528151620010bf85826200104f565b9450620010cc8362001065565b925060208a01995050600181019050620010a3565b50829750879550505050505092915050565b600081519050919050565b600082825260208201905092915050565b6000819050602082019050919050565b6200112a81620007e3565b82525050565b60006200113e83836200111f565b60208301905092915050565b6000602082019050919050565b60006200116482620010f3565b620011708185620010fe565b93506200117d836200110f565b8060005b83811015620011b457815162001198888262001130565b9750620011a5836200114a565b92505060018101905062001181565b5085935050505092915050565b6000610120820190508181036000830152620011de818c62000e1d565b90508181036020830152620011f4818b62000e1d565b905062001205604083018a62000e5e565b62001214606083018962000e5e565b62001223608083018862000e5e565b6200123260a083018762000e5e565b81810360c083015262001246818662000f10565b905081810360e08301526200125c818562001072565b905081810361010083015262001273818462001157565b90509a995050505050505050505056fe60806040523480156200001157600080fd5b50604051620037253803806200372583398181016040528101906200003791906200016c565b826000806101000a81548173ffffffffffffffffffffffffffffffffffffffff021916908373ffffffffffffffffffffffffffffffffffffffff16021790555081600160006101000a81548173ffffffffffffffffffffffffffffffffffffffff021916908373ffffffffffffffffffffffffffffffffffffffff16021790555080600260006101000a81548173ffffffffffffffffffffffffffffffffffffffff021916908373ffffffffffffffffffffffffffffffffffffffff160217905550505050620001c8565b600080fd5b600073ffffffffffffffffffffffffffffffffffffffff82169050919050565b6000620001348262000107565b9050919050565b620001468162000127565b81146200015257600080fd5b50565b60008151905062000166816200013b565b92915050565b60008060006060848603121562000188576200018762000102565b5b6000620001988682870162000155565b9350506020620001ab8682870162000155565b9250506040620001be8682870162000155565b9150509250925092565b61354d80620001d86000396000f3fe608060405234801561001057600080fd5b50600436106101735760003560e01c806397221ab7116100de578063c828371e11610097578063d47875d011610071578063d47875d014610412578063ea8400c114610442578063eb6a0d4b14610460578063f6be71d11461047c57610173565b8063c828371e146103a8578063ccb98ffc146103c6578063d0fc1146146103e257610173565b806397221ab7146102e4578063a07f3a5614610302578063ad2e8c9b14610332578063af81988814610350578063c45994901461036e578063c47f00271461038c57610173565b80633b16ed2d116101305780633b16ed2d1461023a5780633e0a322d14610256578063439f5ac21461027257806355ab4a22146102905780637cabe4db146102ac57806390c3f38f146102c857610173565b80630369a7b91461017857806303d3249114610194578063176366c4146101c457806317d7de7c146101e05780631a092541146101fe5780631ea1380c1461021c575b600080fd5b610192600480360381019061018d91906121ca565b610498565b005b6101ae60048036038101906101a99190612271565b6108c1565b6040516101bb919061235c565b60405180910390f35b6101de60048036038101906101d99190612271565b610958565b005b6101e8610b17565b6040516101f591906123fd565b60405180910390f35b610206610ba9565b60405161021391906123fd565b60405180910390f35b610224610c3b565b60405161023191906125c2565b60405180910390f35b610254600480360381019061024f9190612271565b610d5c565b005b610270600480360381019061026b91906125e4565b610f50565b005b61027a611040565b6040516102879190612620565b60405180910390f35b6102aa60048036038101906102a591906128b2565b61104a565b005b6102c660048036038101906102c191906125e4565b611270565b005b6102e260048036038101906102dd9190612a08565b611360565b005b6102ec611459565b6040516102f99190612c76565b60405180910390f35b61031c60048036038101906103179190612271565b61162d565b6040516103299190612cb3565b60405180910390f35b61033a611683565b6040516103479190612620565b60405180910390f35b61035861168d565b6040516103659190612620565b60405180910390f35b610376611697565b6040516103839190612cdd565b60405180910390f35b6103a660048036038101906103a19190612a08565b6116c1565b005b6103b06117ba565b6040516103bd9190612620565b60405180910390f35b6103e060048036038101906103db91906125e4565b6117c4565b005b6103fc60048036038101906103f79190612271565b6118b4565b6040516104099190612cb3565b60405180910390f35b61042c60048036038101906104279190612271565b6119b3565b6040516104399190612620565b60405180910390f35b61044a6119fc565b6040516104579190612d9b565b60405180910390f35b61047a60048036038101906104759190612dbd565b611b5d565b005b610496600480360381019061049191906125e4565b611d4f565b005b42600754111580156104ac57506008544211155b6104eb576040517f08c379a00000000000000000000000000000000000000000000000000000000081526004016104e290612ed6565b60405180910390fd5b600960003373ffffffffffffffffffffffffffffffffffffffff1673ffffffffffffffffffffffffffffffffffffffff16815260200190815260200160002060009054906101000a900460ff1615610578576040517f08c379a000000000000000000000000000000000000000000000000000000000815260040161056f90612f42565b60405180910390fd5b6000805b82518110156105ed57600a818154811061059957610598612f62565b5b9060005260206000209060030201600201548382815181106105be576105bd612f62565b5b6020026020010151036105da5781806105d690612fc0565b9250505b80806105e590612fc0565b91505061057c565b50600a805490506064826106019190613008565b61060b9190613079565b9050600b60405180608001604052803373ffffffffffffffffffffffffffffffffffffffff16815260200183815260200184815260200142815250908060018154018082558091505060019003906000526020600020906004020160009091909190915060008201518160000160006101000a81548173ffffffffffffffffffffffffffffffffffffffff021916908373ffffffffffffffffffffffffffffffffffffffff1602179055506020820151816001015560408201518160020190805190602001906106dc929190611e3f565b5060608201518160030155505080600c60003373ffffffffffffffffffffffffffffffffffffffff1673ffffffffffffffffffffffffffffffffffffffff1681526020019081526020016000208190555081600d60003373ffffffffffffffffffffffffffffffffffffffff1673ffffffffffffffffffffffffffffffffffffffff1681526020019081526020016000209080519060200190610780929190611e3f565b506001600960003373ffffffffffffffffffffffffffffffffffffffff1673ffffffffffffffffffffffffffffffffffffffff16815260200190815260200160002060006101000a81548160ff0219169083151502179055506000600160009054906101000a900473ffffffffffffffffffffffffffffffffffffffff1690508073ffffffffffffffffffffffffffffffffffffffff1663d2d9e4f833306040518363ffffffff1660e01b815260040161083b9291906130aa565b600060405180830381600087803b15801561085557600080fd5b505af1158015610869573d6000803e3d6000fd5b50505050813373ffffffffffffffffffffffffffffffffffffffff167f92bdbae16ffaef19409a30df755f357d01d62b49822393608f589068f77cb029426040516108b49190612620565b60405180910390a3505050565b6060600d60008373ffffffffffffffffffffffffffffffffffffffff1673ffffffffffffffffffffffffffffffffffffffff16815260200190815260200160002080548060200260200160405190810160405280929190818152602001828054801561094c57602002820191906000526020600020905b815481526020019060010190808311610938575b50505050509050919050565b60008054906101000a900473ffffffffffffffffffffffffffffffffffffffff1673ffffffffffffffffffffffffffffffffffffffff163373ffffffffffffffffffffffffffffffffffffffff1614806109ff5750600260009054906101000a900473ffffffffffffffffffffffffffffffffffffffff1673ffffffffffffffffffffffffffffffffffffffff163373ffffffffffffffffffffffffffffffffffffffff16145b610a3e576040517f08c379a0000000000000000000000000000000000000000000000000000000008152600401610a3590613145565b60405180910390fd5b80600260006101000a81548173ffffffffffffffffffffffffffffffffffffffff021916908373ffffffffffffffffffffffffffffffffffffffff1602179055506000600160009054906101000a900473ffffffffffffffffffffffffffffffffffffffff1690508073ffffffffffffffffffffffffffffffffffffffff166327e381ec83306040518363ffffffff1660e01b8152600401610ae19291906130aa565b600060405180830381600087803b158015610afb57600080fd5b505af1158015610b0f573d6000803e3d6000fd5b505050505050565b606060038054610b2690613194565b80601f0160208091040260200160405190810160405280929190818152602001828054610b5290613194565b8015610b9f5780601f10610b7457610100808354040283529160200191610b9f565b820191906000526020600020905b815481529060010190602001808311610b8257829003601f168201915b5050505050905090565b606060048054610bb890613194565b80601f0160208091040260200160405190810160405280929190818152602001828054610be490613194565b8015610c315780601f10610c0657610100808354040283529160200191610c31565b820191906000526020600020905b815481529060010190602001808311610c1457829003601f168201915b5050505050905090565b6060600b805480602002602001604051908101604052809291908181526020016000905b82821015610d5357838290600052602060002090600402016040518060800160405290816000820160009054906101000a900473ffffffffffffffffffffffffffffffffffffffff1673ffffffffffffffffffffffffffffffffffffffff1673ffffffffffffffffffffffffffffffffffffffff1681526020016001820154815260200160028201805480602002602001604051908101604052809291908181526020018280548015610d3157602002820191906000526020600020905b815481526020019060010190808311610d1d575b5050505050815260200160038201548152505081526020019060010190610c5f565b50505050905090565b6000600160009054906101000a900473ffffffffffffffffffffffffffffffffffffffff1690503373ffffffffffffffffffffffffffffffffffffffff168173ffffffffffffffffffffffffffffffffffffffff166390e987ae6040518163ffffffff1660e01b8152600401602060405180830381865afa158015610de5573d6000803e3d6000fd5b505050506040513d601f19601f82011682018060405250810190610e0991906131da565b73ffffffffffffffffffffffffffffffffffffffff1614610e5f576040517f08c379a0000000000000000000000000000000000000000000000000000000008152600401610e5690613279565b60405180910390fd5b6001600e60008473ffffffffffffffffffffffffffffffffffffffff1673ffffffffffffffffffffffffffffffffffffffff16815260200190815260200160002060006101000a81548160ff0219169083151502179055506000600160009054906101000a900473ffffffffffffffffffffffffffffffffffffffff1690508073ffffffffffffffffffffffffffffffffffffffff1663e9ce0efd30856040518363ffffffff1660e01b8152600401610f199291906130aa565b600060405180830381600087803b158015610f3357600080fd5b505af1158015610f47573d6000803e3d6000fd5b50505050505050565b60008054906101000a900473ffffffffffffffffffffffffffffffffffffffff1673ffffffffffffffffffffffffffffffffffffffff163373ffffffffffffffffffffffffffffffffffffffff161480610ff75750600260009054906101000a900473ffffffffffffffffffffffffffffffffffffffff1673ffffffffffffffffffffffffffffffffffffffff163373ffffffffffffffffffffffffffffffffffffffff16145b611036576040517f08c379a000000000000000000000000000000000000000000000000000000000815260040161102d90613145565b60405180910390fd5b8060078190555050565b6000600854905090565b60008054906101000a900473ffffffffffffffffffffffffffffffffffffffff1673ffffffffffffffffffffffffffffffffffffffff163373ffffffffffffffffffffffffffffffffffffffff1614806110f15750600260009054906101000a900473ffffffffffffffffffffffffffffffffffffffff1673ffffffffffffffffffffffffffffffffffffffff163373ffffffffffffffffffffffffffffffffffffffff16145b611130576040517f08c379a000000000000000000000000000000000000000000000000000000000815260040161112790613145565b60405180910390fd5b886003908161113f9190613445565b50876004908161114f9190613445565b508660058190555085600681905550846007819055508360088190555060005b8351811015611264576000604051806060016040528086848151811061119857611197612f62565b5b602002602001015181526020018584815181106111b8576111b7612f62565b5b602002602001015181526020018484815181106111d8576111d7612f62565b5b60200260200101518152509050600a81908060018154018082558091505060019003906000526020600020906003020160009091909190915060008201518160000190816112269190613445565b506020820151816001019080519060200190611243929190611e8c565b5060408201518160020155505050808061125c90612fc0565b91505061116f565b50505050505050505050565b60008054906101000a900473ffffffffffffffffffffffffffffffffffffffff1673ffffffffffffffffffffffffffffffffffffffff163373ffffffffffffffffffffffffffffffffffffffff1614806113175750600260009054906101000a900473ffffffffffffffffffffffffffffffffffffffff1673ffffffffffffffffffffffffffffffffffffffff163373ffffffffffffffffffffffffffffffffffffffff16145b611356576040517f08c379a000000000000000000000000000000000000000000000000000000000815260040161134d90613145565b60405180910390fd5b8060058190555050565b60008054906101000a900473ffffffffffffffffffffffffffffffffffffffff1673ffffffffffffffffffffffffffffffffffffffff163373ffffffffffffffffffffffffffffffffffffffff1614806114075750600260009054906101000a900473ffffffffffffffffffffffffffffffffffffffff1673ffffffffffffffffffffffffffffffffffffffff163373ffffffffffffffffffffffffffffffffffffffff16145b611446576040517f08c379a000000000000000000000000000000000000000000000000000000000815260040161143d90613145565b60405180910390fd5b80600490816114559190613445565b5050565b6060600a805480602002602001604051908101604052809291908181526020016000905b8282101561162457838290600052602060002090600302016040518060600160405290816000820180546114b090613194565b80601f01602080910402602001604051908101604052809291908181526020018280546114dc90613194565b80156115295780601f106114fe57610100808354040283529160200191611529565b820191906000526020600020905b81548152906001019060200180831161150c57829003601f168201915b5050505050815260200160018201805480602002602001604051908101604052809291908181526020016000905b8282101561160357838290600052602060002001805461157690613194565b80601f01602080910402602001604051908101604052809291908181526020018280546115a290613194565b80156115ef5780601f106115c4576101008083540402835291602001916115ef565b820191906000526020600020905b8154815290600101906020018083116115d257829003601f168201915b505050505081526020019060010190611557565b5050505081526020016002820154815250508152602001906001019061147d565b50505050905090565b6000600960008373ffffffffffffffffffffffffffffffffffffffff1673ffffffffffffffffffffffffffffffffffffffff16815260200190815260200160002060009054906101000a900460ff169050919050565b6000600654905090565b6000600554905090565b6000600260009054906101000a900473ffffffffffffffffffffffffffffffffffffffff16905090565b60008054906101000a900473ffffffffffffffffffffffffffffffffffffffff1673ffffffffffffffffffffffffffffffffffffffff163373ffffffffffffffffffffffffffffffffffffffff1614806117685750600260009054906101000a900473ffffffffffffffffffffffffffffffffffffffff1673ffffffffffffffffffffffffffffffffffffffff163373ffffffffffffffffffffffffffffffffffffffff16145b6117a7576040517f08c379a000000000000000000000000000000000000000000000000000000000815260040161179e90613145565b60405180910390fd5b80600390816117b69190613445565b5050565b6000600754905090565b60008054906101000a900473ffffffffffffffffffffffffffffffffffffffff1673ffffffffffffffffffffffffffffffffffffffff163373ffffffffffffffffffffffffffffffffffffffff16148061186b5750600260009054906101000a900473ffffffffffffffffffffffffffffffffffffffff1673ffffffffffffffffffffffffffffffffffffffff163373ffffffffffffffffffffffffffffffffffffffff16145b6118aa576040517f08c379a00000000000000000000000000000000000000000000000000000000081526004016118a190613145565b60405180910390fd5b8060088190555050565b6000600c60008373ffffffffffffffffffffffffffffffffffffffff1673ffffffffffffffffffffffffffffffffffffffff16815260200190815260200160002054600554111580156119505750600960008373ffffffffffffffffffffffffffffffffffffffff1673ffffffffffffffffffffffffffffffffffffffff16815260200190815260200160002060009054906101000a900460ff165b80156119ac575060001515600e60008473ffffffffffffffffffffffffffffffffffffffff1673ffffffffffffffffffffffffffffffffffffffff16815260200190815260200160002060009054906101000a900460ff161515145b9050919050565b6000600c60008373ffffffffffffffffffffffffffffffffffffffff1673ffffffffffffffffffffffffffffffffffffffff168152602001908152602001600020549050919050565b611a04611ee5565b6040518060e0016040528060038054611a1c90613194565b80601f0160208091040260200160405190810160405280929190818152602001828054611a4890613194565b8015611a955780601f10611a6a57610100808354040283529160200191611a95565b820191906000526020600020905b815481529060010190602001808311611a7857829003601f168201915b5050505050815260200160048054611aac90613194565b80601f0160208091040260200160405190810160405280929190818152602001828054611ad890613194565b8015611b255780601f10611afa57610100808354040283529160200191611b25565b820191906000526020600020905b815481529060010190602001808311611b0857829003601f168201915b505050505081526020016005548152602001600654815260200160075481526020016008548152602001600b80549050815250905090565b60008054906101000a900473ffffffffffffffffffffffffffffffffffffffff1673ffffffffffffffffffffffffffffffffffffffff163373ffffffffffffffffffffffffffffffffffffffff161480611c045750600260009054906101000a900473ffffffffffffffffffffffffffffffffffffffff1673ffffffffffffffffffffffffffffffffffffffff163373ffffffffffffffffffffffffffffffffffffffff16145b611c43576040517f08c379a0000000000000000000000000000000000000000000000000000000008152600401611c3a90613145565b60405180910390fd5b600a6000611c519190611f22565b60005b8351811015611d495760006040518060600160405280868481518110611c7d57611c7c612f62565b5b60200260200101518152602001858481518110611c9d57611c9c612f62565b5b60200260200101518152602001848481518110611cbd57611cbc612f62565b5b60200260200101518152509050600a8190806001815401808255809150506001900390600052602060002090600302016000909190919091506000820151816000019081611d0b9190613445565b506020820151816001019080519060200190611d28929190611e8c565b50604082015181600201555050508080611d4190612fc0565b915050611c54565b50505050565b60008054906101000a900473ffffffffffffffffffffffffffffffffffffffff1673ffffffffffffffffffffffffffffffffffffffff163373ffffffffffffffffffffffffffffffffffffffff161480611df65750600260009054906101000a900473ffffffffffffffffffffffffffffffffffffffff1673ffffffffffffffffffffffffffffffffffffffff163373ffffffffffffffffffffffffffffffffffffffff16145b611e35576040517f08c379a0000000000000000000000000000000000000000000000000000000008152600401611e2c90613145565b60405180910390fd5b8060068190555050565b828054828255906000526020600020908101928215611e7b579160200282015b82811115611e7a578251825591602001919060010190611e5f565b5b509050611e889190611f46565b5090565b828054828255906000526020600020908101928215611ed4579160200282015b82811115611ed3578251829081611ec39190613445565b5091602001919060010190611eac565b5b509050611ee19190611f63565b5090565b6040518060e00160405280606081526020016060815260200160008152602001600081526020016000815260200160008152602001600081525090565b5080546000825560030290600052602060002090810190611f439190611f87565b50565b5b80821115611f5f576000816000905550600101611f47565b5090565b5b80821115611f835760008181611f7a9190611fc6565b50600101611f64565b5090565b5b80821115611fc25760008082016000611fa19190611fc6565b600182016000611fb19190612006565b600282016000905550600301611f88565b5090565b508054611fd290613194565b6000825580601f10611fe45750612003565b601f0160209004906000526020600020908101906120029190611f46565b5b50565b50805460008255906000526020600020908101906120249190611f63565b50565b6000604051905090565b600080fd5b600080fd5b600080fd5b6000601f19601f8301169050919050565b7f4e487b7100000000000000000000000000000000000000000000000000000000600052604160045260246000fd5b61208982612040565b810181811067ffffffffffffffff821117156120a8576120a7612051565b5b80604052505050565b60006120bb612027565b90506120c78282612080565b919050565b600067ffffffffffffffff8211156120e7576120e6612051565b5b602082029050602081019050919050565b600080fd5b6000819050919050565b612110816120fd565b811461211b57600080fd5b50565b60008135905061212d81612107565b92915050565b6000612146612141846120cc565b6120b1565b90508083825260208201905060208402830185811115612169576121686120f8565b5b835b81811015612192578061217e888261211e565b84526020840193505060208101905061216b565b5050509392505050565b600082601f8301126121b1576121b061203b565b5b81356121c1848260208601612133565b91505092915050565b6000602082840312156121e0576121df612031565b5b600082013567ffffffffffffffff8111156121fe576121fd612036565b5b61220a8482850161219c565b91505092915050565b600073ffffffffffffffffffffffffffffffffffffffff82169050919050565b600061223e82612213565b9050919050565b61224e81612233565b811461225957600080fd5b50565b60008135905061226b81612245565b92915050565b60006020828403121561228757612286612031565b5b60006122958482850161225c565b91505092915050565b600081519050919050565b600082825260208201905092915050565b6000819050602082019050919050565b6122d3816120fd565b82525050565b60006122e583836122ca565b60208301905092915050565b6000602082019050919050565b60006123098261229e565b61231381856122a9565b935061231e836122ba565b8060005b8381101561234f57815161233688826122d9565b9750612341836122f1565b925050600181019050612322565b5085935050505092915050565b6000602082019050818103600083015261237681846122fe565b905092915050565b600081519050919050565b600082825260208201905092915050565b60005b838110156123b857808201518184015260208101905061239d565b60008484015250505050565b60006123cf8261237e565b6123d98185612389565b93506123e981856020860161239a565b6123f281612040565b840191505092915050565b6000602082019050818103600083015261241781846123c4565b905092915050565b600081519050919050565b600082825260208201905092915050565b6000819050602082019050919050565b61245481612233565b82525050565b600082825260208201905092915050565b60006124768261229e565b612480818561245a565b935061248b836122ba565b8060005b838110156124bc5781516124a388826122d9565b97506124ae836122f1565b92505060018101905061248f565b5085935050505092915050565b60006080830160008301516124e1600086018261244b565b5060208301516124f460208601826122ca565b506040830151848203604086015261250c828261246b565b915050606083015161252160608601826122ca565b508091505092915050565b600061253883836124c9565b905092915050565b6000602082019050919050565b60006125588261241f565b612562818561242a565b9350836020820285016125748561243b565b8060005b858110156125b05784840389528151612591858261252c565b945061259c83612540565b925060208a01995050600181019050612578565b50829750879550505050505092915050565b600060208201905081810360008301526125dc818461254d565b905092915050565b6000602082840312156125fa576125f9612031565b5b60006126088482850161211e565b91505092915050565b61261a816120fd565b82525050565b60006020820190506126356000830184612611565b92915050565b600080fd5b600067ffffffffffffffff82111561265b5761265a612051565b5b61266482612040565b9050602081019050919050565b82818337600083830152505050565b600061269361268e84612640565b6120b1565b9050828152602081018484840111156126af576126ae61263b565b5b6126ba848285612671565b509392505050565b600082601f8301126126d7576126d661203b565b5b81356126e7848260208601612680565b91505092915050565b600067ffffffffffffffff82111561270b5761270a612051565b5b602082029050602081019050919050565b600061272f61272a846126f0565b6120b1565b90508083825260208201905060208402830185811115612752576127516120f8565b5b835b8181101561279957803567ffffffffffffffff8111156127775761277661203b565b5b80860161278489826126c2565b85526020850194505050602081019050612754565b5050509392505050565b600082601f8301126127b8576127b761203b565b5b81356127c884826020860161271c565b91505092915050565b600067ffffffffffffffff8211156127ec576127eb612051565b5b602082029050602081019050919050565b600061281061280b846127d1565b6120b1565b90508083825260208201905060208402830185811115612833576128326120f8565b5b835b8181101561287a57803567ffffffffffffffff8111156128585761285761203b565b5b80860161286589826127a3565b85526020850194505050602081019050612835565b5050509392505050565b600082601f8301126128995761289861203b565b5b81356128a98482602086016127fd565b91505092915050565b60008060008060008060008060006101208a8c0312156128d5576128d4612031565b5b60008a013567ffffffffffffffff8111156128f3576128f2612036565b5b6128ff8c828d016126c2565b99505060208a013567ffffffffffffffff8111156129205761291f612036565b5b61292c8c828d016126c2565b985050604061293d8c828d0161211e565b975050606061294e8c828d0161211e565b965050608061295f8c828d0161211e565b95505060a06129708c828d0161211e565b94505060c08a013567ffffffffffffffff81111561299157612990612036565b5b61299d8c828d016127a3565b93505060e08a013567ffffffffffffffff8111156129be576129bd612036565b5b6129ca8c828d01612884565b9250506101008a013567ffffffffffffffff8111156129ec576129eb612036565b5b6129f88c828d0161219c565b9150509295985092959850929598565b600060208284031215612a1e57612a1d612031565b5b600082013567ffffffffffffffff811115612a3c57612a3b612036565b5b612a48848285016126c2565b91505092915050565b600081519050919050565b600082825260208201905092915050565b6000819050602082019050919050565b600082825260208201905092915050565b6000612a998261237e565b612aa38185612a7d565b9350612ab381856020860161239a565b612abc81612040565b840191505092915050565b600081519050919050565b600082825260208201905092915050565b6000819050602082019050919050565b6000612aff8383612a8e565b905092915050565b6000602082019050919050565b6000612b1f82612ac7565b612b298185612ad2565b935083602082028501612b3b85612ae3565b8060005b85811015612b775784840389528151612b588582612af3565b9450612b6383612b07565b925060208a01995050600181019050612b3f565b50829750879550505050505092915050565b60006060830160008301518482036000860152612ba68282612a8e565b91505060208301518482036020860152612bc08282612b14565b9150506040830151612bd560408601826122ca565b508091505092915050565b6000612bec8383612b89565b905092915050565b6000602082019050919050565b6000612c0c82612a51565b612c168185612a5c565b935083602082028501612c2885612a6d565b8060005b85811015612c645784840389528151612c458582612be0565b9450612c5083612bf4565b925060208a01995050600181019050612c2c565b50829750879550505050505092915050565b60006020820190508181036000830152612c908184612c01565b905092915050565b60008115159050919050565b612cad81612c98565b82525050565b6000602082019050612cc86000830184612ca4565b92915050565b612cd781612233565b82525050565b6000602082019050612cf26000830184612cce565b92915050565b600060e0830160008301518482036000860152612d158282612a8e565b91505060208301518482036020860152612d2f8282612a8e565b9150506040830151612d4460408601826122ca565b506060830151612d5760608601826122ca565b506080830151612d6a60808601826122ca565b5060a0830151612d7d60a08601826122ca565b5060c0830151612d9060c08601826122ca565b508091505092915050565b60006020820190508181036000830152612db58184612cf8565b905092915050565b600080600060608486031215612dd657612dd5612031565b5b600084013567ffffffffffffffff811115612df457612df3612036565b5b612e00868287016127a3565b935050602084013567ffffffffffffffff811115612e2157612e20612036565b5b612e2d86828701612884565b925050604084013567ffffffffffffffff811115612e4e57612e4d612036565b5b612e5a8682870161219c565b9150509250925092565b7f5175697a617264206973206e6f74206f70656e20666f72207375626d6973736960008201527f6f6e2e0000000000000000000000000000000000000000000000000000000000602082015250565b6000612ec0602383612389565b9150612ecb82612e64565b604082019050919050565b60006020820190508181036000830152612eef81612eb3565b9050919050565b7f596f75206861766520616c7265616479207375626d69747465642e0000000000600082015250565b6000612f2c601b83612389565b9150612f3782612ef6565b602082019050919050565b60006020820190508181036000830152612f5b81612f1f565b9050919050565b7f4e487b7100000000000000000000000000000000000000000000000000000000600052603260045260246000fd5b7f4e487b7100000000000000000000000000000000000000000000000000000000600052601160045260246000fd5b6000612fcb826120fd565b91507fffffffffffffffffffffffffffffffffffffffffffffffffffffffffffffffff8203612ffd57612ffc612f91565b5b600182019050919050565b6000613013826120fd565b915061301e836120fd565b925082820261302c816120fd565b9150828204841483151761304357613042612f91565b5b5092915050565b7f4e487b7100000000000000000000000000000000000000000000000000000000600052601260045260246000fd5b6000613084826120fd565b915061308f836120fd565b92508261309f5761309e61304a565b5b828204905092915050565b60006040820190506130bf6000830185612cce565b6130cc6020830184612cce565b9392505050565b7f4f6e6c79205175697a617264466163746f7279206f722054656163686572206360008201527f616e2063616c6c20746869732066756e6374696f6e2e00000000000000000000602082015250565b600061312f603683612389565b915061313a826130d3565b604082019050919050565b6000602082019050818103600083015261315e81613122565b9050919050565b7f4e487b7100000000000000000000000000000000000000000000000000000000600052602260045260246000fd5b600060028204905060018216806131ac57607f821691505b6020821081036131bf576131be613165565b5b50919050565b6000815190506131d481612245565b92915050565b6000602082840312156131f0576131ef612031565b5b60006131fe848285016131c5565b91505092915050565b7f4f6e6c79205175697a6172644e46542063616e2063616c6c207468697320667560008201527f6e6374696f6e2e00000000000000000000000000000000000000000000000000602082015250565b6000613263602783612389565b915061326e82613207565b604082019050919050565b6000602082019050818103600083015261329281613256565b9050919050565b60008190508160005260206000209050919050565b60006020601f8301049050919050565b600082821b905092915050565b6000600883026132fb7fffffffffffffffffffffffffffffffffffffffffffffffffffffffffffffffff826132be565b61330586836132be565b95508019841693508086168417925050509392505050565b6000819050919050565b600061334261333d613338846120fd565b61331d565b6120fd565b9050919050565b6000819050919050565b61335c83613327565b61337061336882613349565b8484546132cb565b825550505050565b600090565b613385613378565b613390818484613353565b505050565b5b818110156133b4576133a960008261337d565b600181019050613396565b5050565b601f8211156133f9576133ca81613299565b6133d3846132ae565b810160208510156133e2578190505b6133f66133ee856132ae565b830182613395565b50505b505050565b600082821c905092915050565b600061341c600019846008026133fe565b1980831691505092915050565b6000613435838361340b565b9150826002028217905092915050565b61344e8261237e565b67ffffffffffffffff81111561346757613466612051565b5b6134718254613194565b61347c8282856133b8565b600060209050601f8311600181146134af576000841561349d578287015190505b6134a78582613429565b86555061350f565b601f1984166134bd86613299565b60005b828110156134e5578489015182556001820191506020850194506020810190506134c0565b8683101561350257848901516134fe601f89168261340b565b8355505b6001600288020188555050505b50505050505056fea26469706673582212209d481a8ec1ed374e015a2ba76b8324a2ae4db62b25094c1aa56e2f78db8a8cd764736f6c63430008110033a2646970667358221220f7bb3de6974900d4ca5de0fe33319caaee0ca15f5f63dff9767528a8b926cbf164736f6c63430008110033",
  "linkReferences": {},
  "deployedLinkReferences": {}
}