{
  "_format": "hh-sol-artifact-1",
  "contractName": "QuizardFactory",
  "sourceName": "contracts/QuizardFactory.sol",
  "abi": [
    {
      "inputs": [],
      "stateMutability": "nonpayable",
      "type": "constructor"
    },
    {
      "anonymous": false,
      "inputs": [
        {
          "indexed": true,
          "internalType": "address",
          "name": "teacher",
          "type": "address"
        },
        {
          "indexed": true,
          "internalType": "address",
          "name": "quizard",
          "type": "address"
        }
      ],
      "name": "QuizardCreated",
      "type": "event"
    },
    {
      "inputs": [
        {
          "internalType": "string",
          "name": "name",
          "type": "string"
        },
        {
          "internalType": "string",
          "name": "description",
          "type": "string"
        },
        {
          "internalType": "uint256",
          "name": "passingScore",
          "type": "uint256"
        },
        {
          "internalType": "uint256",
          "name": "duration",
          "type": "uint256"
        },
        {
          "internalType": "uint256",
          "name": "startTime",
          "type": "uint256"
        },
        {
          "internalType": "uint256",
          "name": "endTime",
          "type": "uint256"
        },
        {
          "internalType": "string[]",
          "name": "questions",
          "type": "string[]"
        },
        {
          "internalType": "string[][]",
          "name": "answers",
          "type": "string[][]"
        },
        {
          "internalType": "uint256[]",
          "name": "correctAnswers",
          "type": "uint256[]"
        }
      ],
      "name": "createQuizard",
      "outputs": [
        {
          "internalType": "address",
          "name": "",
          "type": "address"
        }
      ],
      "stateMutability": "nonpayable",
      "type": "function"
    },
    {
      "inputs": [],
      "name": "getOwner",
      "outputs": [
        {
          "internalType": "address",
          "name": "",
          "type": "address"
        }
      ],
      "stateMutability": "view",
      "type": "function"
    },
    {
      "inputs": [],
      "name": "getQuizardManager",
      "outputs": [
        {
          "internalType": "address",
          "name": "",
          "type": "address"
        }
      ],
      "stateMutability": "view",
      "type": "function"
    },
    {
      "inputs": [
        {
          "internalType": "address",
          "name": "owner",
          "type": "address"
        }
      ],
      "name": "setOwner",
      "outputs": [],
      "stateMutability": "nonpayable",
      "type": "function"
    },
    {
      "inputs": [
        {
          "internalType": "address",
          "name": "quizardManager",
          "type": "address"
        }
      ],
      "name": "setQuizardManager",
      "outputs": [],
      "stateMutability": "nonpayable",
      "type": "function"
    }
  ],
  "bytecode": "0x608060405234801561001057600080fd5b50336000806101000a81548173ffffffffffffffffffffffffffffffffffffffff021916908373ffffffffffffffffffffffffffffffffffffffff1602179055506143e0806100606000396000f3fe60806040523480156200001157600080fd5b50600436106200005e5760003560e01c806313af40351462000063578063758932cd1462000083578063893d20e814620000a3578063a80a088e14620000c5578063f1957f3314620000e7575b600080fd5b6200008160048036038101906200007b919062000621565b6200011d565b005b620000a160048036038101906200009b919062000621565b620001f1565b005b620000ad620002c6565b604051620000bc919062000664565b60405180910390f35b620000cf620002ef565b604051620000de919062000664565b60405180910390f35b620001056004803603810190620000ff919062000ae7565b62000319565b60405162000114919062000664565b60405180910390f35b60008054906101000a900473ffffffffffffffffffffffffffffffffffffffff1673ffffffffffffffffffffffffffffffffffffffff163373ffffffffffffffffffffffffffffffffffffffff1614620001ae576040517f08c379a0000000000000000000000000000000000000000000000000000000008152600401620001a59062000ce8565b60405180910390fd5b806000806101000a81548173ffffffffffffffffffffffffffffffffffffffff021916908373ffffffffffffffffffffffffffffffffffffffff16021790555050565b60008054906101000a900473ffffffffffffffffffffffffffffffffffffffff1673ffffffffffffffffffffffffffffffffffffffff163373ffffffffffffffffffffffffffffffffffffffff161462000282576040517f08c379a0000000000000000000000000000000000000000000000000000000008152600401620002799062000ce8565b60405180910390fd5b80600160006101000a81548173ffffffffffffffffffffffffffffffffffffffff021916908373ffffffffffffffffffffffffffffffffffffffff16021790555050565b60008060009054906101000a900473ffffffffffffffffffffffffffffffffffffffff16905090565b6000600160009054906101000a900473ffffffffffffffffffffffffffffffffffffffff16905090565b60008073ffffffffffffffffffffffffffffffffffffffff16600160009054906101000a900473ffffffffffffffffffffffffffffffffffffffff1673ffffffffffffffffffffffffffffffffffffffff1603620003ae576040517f08c379a0000000000000000000000000000000000000000000000000000000008152600401620003a59062000d5a565b60405180910390fd5b6000339050600030600160009054906101000a900473ffffffffffffffffffffffffffffffffffffffff1683604051620003e8906200059a565b620003f69392919062000d7c565b604051809103906000f08015801562000413573d6000803e3d6000fd5b5090506000600160009054906101000a900473ffffffffffffffffffffffffffffffffffffffff1690508073ffffffffffffffffffffffffffffffffffffffff16639004d1ad84846040518363ffffffff1660e01b81526004016200047a92919062000db9565b600060405180830381600087803b1580156200049557600080fd5b505af1158015620004aa573d6000803e3d6000fd5b505050508173ffffffffffffffffffffffffffffffffffffffff166355ab4a228e8e8e8e8e8e8e8e8e6040518a63ffffffff1660e01b8152600401620004f999989796959493929190620011c1565b600060405180830381600087803b1580156200051457600080fd5b505af115801562000529573d6000803e3d6000fd5b505050508173ffffffffffffffffffffffffffffffffffffffff168373ffffffffffffffffffffffffffffffffffffffff167f5ee4cc238ca994414889020a5a5f979b6310c4c4f19a92b667b2da17ab1eb03a60405160405180910390a38193505050509998505050505050505050565b613127806200128483390190565b6000604051905090565b600080fd5b600080fd5b600073ffffffffffffffffffffffffffffffffffffffff82169050919050565b6000620005e982620005bc565b9050919050565b620005fb81620005dc565b81146200060757600080fd5b50565b6000813590506200061b81620005f0565b92915050565b6000602082840312156200063a5762000639620005b2565b5b60006200064a848285016200060a565b91505092915050565b6200065e81620005dc565b82525050565b60006020820190506200067b600083018462000653565b92915050565b600080fd5b600080fd5b6000601f19601f8301169050919050565b7f4e487b7100000000000000000000000000000000000000000000000000000000600052604160045260246000fd5b620006d6826200068b565b810181811067ffffffffffffffff82111715620006f857620006f76200069c565b5b80604052505050565b60006200070d620005a8565b90506200071b8282620006cb565b919050565b600067ffffffffffffffff8211156200073e576200073d6200069c565b5b62000749826200068b565b9050602081019050919050565b82818337600083830152505050565b60006200077c620007768462000720565b62000701565b9050828152602081018484840111156200079b576200079a62000686565b5b620007a884828562000756565b509392505050565b600082601f830112620007c857620007c762000681565b5b8135620007da84826020860162000765565b91505092915050565b6000819050919050565b620007f881620007e3565b81146200080457600080fd5b50565b6000813590506200081881620007ed565b92915050565b600067ffffffffffffffff8211156200083c576200083b6200069c565b5b602082029050602081019050919050565b600080fd5b60006200086962000863846200081e565b62000701565b905080838252602082019050602084028301858111156200088f576200088e6200084d565b5b835b81811015620008dd57803567ffffffffffffffff811115620008b857620008b762000681565b5b808601620008c78982620007b0565b8552602085019450505060208101905062000891565b5050509392505050565b600082601f830112620008ff57620008fe62000681565b5b81356200091184826020860162000852565b91505092915050565b600067ffffffffffffffff8211156200093857620009376200069c565b5b602082029050602081019050919050565b6000620009606200095a846200091a565b62000701565b905080838252602082019050602084028301858111156200098657620009856200084d565b5b835b81811015620009d457803567ffffffffffffffff811115620009af57620009ae62000681565b5b808601620009be8982620008e7565b8552602085019450505060208101905062000988565b5050509392505050565b600082601f830112620009f657620009f562000681565b5b813562000a0884826020860162000949565b91505092915050565b600067ffffffffffffffff82111562000a2f5762000a2e6200069c565b5b602082029050602081019050919050565b600062000a5762000a518462000a11565b62000701565b9050808382526020820190506020840283018581111562000a7d5762000a7c6200084d565b5b835b8181101562000aaa578062000a95888262000807565b84526020840193505060208101905062000a7f565b5050509392505050565b600082601f83011262000acc5762000acb62000681565b5b813562000ade84826020860162000a40565b91505092915050565b60008060008060008060008060006101208a8c03121562000b0d5762000b0c620005b2565b5b60008a013567ffffffffffffffff81111562000b2e5762000b2d620005b7565b5b62000b3c8c828d01620007b0565b99505060208a013567ffffffffffffffff81111562000b605762000b5f620005b7565b5b62000b6e8c828d01620007b0565b985050604062000b818c828d0162000807565b975050606062000b948c828d0162000807565b965050608062000ba78c828d0162000807565b95505060a062000bba8c828d0162000807565b94505060c08a013567ffffffffffffffff81111562000bde5762000bdd620005b7565b5b62000bec8c828d01620008e7565b93505060e08a013567ffffffffffffffff81111562000c105762000c0f620005b7565b5b62000c1e8c828d01620009de565b9250506101008a013567ffffffffffffffff81111562000c435762000c42620005b7565b5b62000c518c828d0162000ab4565b9150509295985092959850929598565b600082825260208201905092915050565b7f4f6e6c79206f776e65722063616e2063616c6c20746869732066756e6374696f60008201527f6e00000000000000000000000000000000000000000000000000000000000000602082015250565b600062000cd060218362000c61565b915062000cdd8262000c72565b604082019050919050565b6000602082019050818103600083015262000d038162000cc1565b9050919050565b7f5175697a6172644d616e61676572206e6f742073657400000000000000000000600082015250565b600062000d4260168362000c61565b915062000d4f8262000d0a565b602082019050919050565b6000602082019050818103600083015262000d758162000d33565b9050919050565b600060608201905062000d93600083018662000653565b62000da2602083018562000653565b62000db1604083018462000653565b949350505050565b600060408201905062000dd0600083018562000653565b62000ddf602083018462000653565b9392505050565b600081519050919050565b60005b8381101562000e1157808201518184015260208101905062000df4565b60008484015250505050565b600062000e2a8262000de6565b62000e36818562000c61565b935062000e4881856020860162000df1565b62000e53816200068b565b840191505092915050565b62000e6981620007e3565b82525050565b600081519050919050565b600082825260208201905092915050565b6000819050602082019050919050565b600082825260208201905092915050565b600062000eb98262000de6565b62000ec5818562000e9b565b935062000ed781856020860162000df1565b62000ee2816200068b565b840191505092915050565b600062000efb838362000eac565b905092915050565b6000602082019050919050565b600062000f1d8262000e6f565b62000f29818562000e7a565b93508360208202850162000f3d8562000e8b565b8060005b8581101562000f7f578484038952815162000f5d858262000eed565b945062000f6a8362000f03565b925060208a0199505060018101905062000f41565b50829750879550505050505092915050565b600081519050919050565b600082825260208201905092915050565b6000819050602082019050919050565b600082825260208201905092915050565b600062000fdb8262000e6f565b62000fe7818562000fbd565b93508360208202850162000ffb8562000e8b565b8060005b858110156200103d57848403895281516200101b858262000eed565b9450620010288362000f03565b925060208a0199505060018101905062000fff565b50829750879550505050505092915050565b60006200105d838362000fce565b905092915050565b6000602082019050919050565b60006200107f8262000f91565b6200108b818562000f9c565b9350836020820285016200109f8562000fad565b8060005b85811015620010e15784840389528151620010bf85826200104f565b9450620010cc8362001065565b925060208a01995050600181019050620010a3565b50829750879550505050505092915050565b600081519050919050565b600082825260208201905092915050565b6000819050602082019050919050565b6200112a81620007e3565b82525050565b60006200113e83836200111f565b60208301905092915050565b6000602082019050919050565b60006200116482620010f3565b620011708185620010fe565b93506200117d836200110f565b8060005b83811015620011b457815162001198888262001130565b9750620011a5836200114a565b92505060018101905062001181565b5085935050505092915050565b6000610120820190508181036000830152620011de818c62000e1d565b90508181036020830152620011f4818b62000e1d565b905062001205604083018a62000e5e565b62001214606083018962000e5e565b62001223608083018862000e5e565b6200123260a083018762000e5e565b81810360c083015262001246818662000f10565b905081810360e08301526200125c818562001072565b905081810361010083015262001273818462001157565b90509a995050505050505050505056fe60806040523480156200001157600080fd5b50604051620031273803806200312783398181016040528101906200003791906200016c565b826000806101000a81548173ffffffffffffffffffffffffffffffffffffffff021916908373ffffffffffffffffffffffffffffffffffffffff16021790555081600160006101000a81548173ffffffffffffffffffffffffffffffffffffffff021916908373ffffffffffffffffffffffffffffffffffffffff16021790555080600260006101000a81548173ffffffffffffffffffffffffffffffffffffffff021916908373ffffffffffffffffffffffffffffffffffffffff160217905550505050620001c8565b600080fd5b600073ffffffffffffffffffffffffffffffffffffffff82169050919050565b6000620001348262000107565b9050919050565b620001468162000127565b81146200015257600080fd5b50565b60008151905062000166816200013b565b92915050565b60008060006060848603121562000188576200018762000102565b5b6000620001988682870162000155565b9350506020620001ab8682870162000155565b9250506040620001be8682870162000155565b9150509250925092565b612f4f80620001d86000396000f3fe608060405234801561001057600080fd5b506004361061014d5760003560e01c806397221ab7116100c3578063c828371e1161007c578063c828371e14610352578063ccb98ffc14610370578063d0fc11461461038c578063d47875d0146103bc578063eb6a0d4b146103ec578063f6be71d1146104085761014d565b806397221ab71461028e578063a07f3a56146102ac578063ad2e8c9b146102dc578063af819888146102fa578063c459949014610318578063c47f0027146103365761014d565b80633b16ed2d116101155780633b16ed2d146101e45780633e0a322d14610200578063439f5ac21461021c57806355ab4a221461023a5780637cabe4db1461025657806390c3f38f146102725761014d565b80630369a7b914610152578063176366c41461016e57806317d7de7c1461018a5780631a092541146101a85780631ea1380c146101c6575b600080fd5b61016c60048036038101906101679190611e05565b610424565b005b61018860048036038101906101839190611eac565b6107d6565b005b610192610995565b60405161019f9190611f58565b60405180910390f35b6101b0610a27565b6040516101bd9190611f58565b60405180910390f35b6101ce610ab9565b6040516101db9190612089565b60405180910390f35b6101fe60048036038101906101f99190611eac565b610b82565b005b61021a600480360381019061021591906120ab565b610d76565b005b610224610e66565b60405161023191906120e7565b60405180910390f35b610254600480360381019061024f9190612379565b610e70565b005b610270600480360381019061026b91906120ab565b611096565b005b61028c600480360381019061028791906124cf565b611186565b005b61029661127f565b6040516102a3919061273d565b60405180910390f35b6102c660048036038101906102c19190611eac565b611453565b6040516102d3919061277a565b60405180910390f35b6102e46114a9565b6040516102f191906120e7565b60405180910390f35b6103026114b3565b60405161030f91906120e7565b60405180910390f35b6103206114bd565b60405161032d91906127a4565b60405180910390f35b610350600480360381019061034b91906124cf565b6114e7565b005b61035a6115e0565b60405161036791906120e7565b60405180910390f35b61038a600480360381019061038591906120ab565b6115ea565b005b6103a660048036038101906103a19190611eac565b6116da565b6040516103b3919061277a565b60405180910390f35b6103d660048036038101906103d19190611eac565b6117d9565b6040516103e391906120e7565b60405180910390f35b610406600480360381019061040191906127bf565b611822565b005b610422600480360381019061041d91906120ab565b611a14565b005b426007541115801561043857506008544211155b610477576040517f08c379a000000000000000000000000000000000000000000000000000000000815260040161046e906128d8565b60405180910390fd5b600960003373ffffffffffffffffffffffffffffffffffffffff1673ffffffffffffffffffffffffffffffffffffffff16815260200190815260200160002060009054906101000a900460ff1615610504576040517f08c379a00000000000000000000000000000000000000000000000000000000081526004016104fb90612944565b60405180910390fd5b6000805b825181101561057957600a818154811061052557610524612964565b5b90600052602060002090600302016002015483828151811061054a57610549612964565b5b602002602001015103610566578180610562906129c2565b9250505b8080610571906129c2565b915050610508565b50600a8054905060648261058d9190612a0a565b6105979190612a7b565b9050600b60405180606001604052803373ffffffffffffffffffffffffffffffffffffffff16815260200183815260200142815250908060018154018082558091505060019003906000526020600020906003020160009091909190915060008201518160000160006101000a81548173ffffffffffffffffffffffffffffffffffffffff021916908373ffffffffffffffffffffffffffffffffffffffff1602179055506020820151816001015560408201518160020155505080600c60003373ffffffffffffffffffffffffffffffffffffffff1673ffffffffffffffffffffffffffffffffffffffff168152602001908152602001600020819055506001600960003373ffffffffffffffffffffffffffffffffffffffff1673ffffffffffffffffffffffffffffffffffffffff16815260200190815260200160002060006101000a81548160ff0219169083151502179055506000600160009054906101000a900473ffffffffffffffffffffffffffffffffffffffff1690508073ffffffffffffffffffffffffffffffffffffffff1663d2d9e4f833306040518363ffffffff1660e01b8152600401610750929190612aac565b600060405180830381600087803b15801561076a57600080fd5b505af115801561077e573d6000803e3d6000fd5b50505050813373ffffffffffffffffffffffffffffffffffffffff167f92bdbae16ffaef19409a30df755f357d01d62b49822393608f589068f77cb029426040516107c991906120e7565b60405180910390a3505050565b60008054906101000a900473ffffffffffffffffffffffffffffffffffffffff1673ffffffffffffffffffffffffffffffffffffffff163373ffffffffffffffffffffffffffffffffffffffff16148061087d5750600260009054906101000a900473ffffffffffffffffffffffffffffffffffffffff1673ffffffffffffffffffffffffffffffffffffffff163373ffffffffffffffffffffffffffffffffffffffff16145b6108bc576040517f08c379a00000000000000000000000000000000000000000000000000000000081526004016108b390612b47565b60405180910390fd5b80600260006101000a81548173ffffffffffffffffffffffffffffffffffffffff021916908373ffffffffffffffffffffffffffffffffffffffff1602179055506000600160009054906101000a900473ffffffffffffffffffffffffffffffffffffffff1690508073ffffffffffffffffffffffffffffffffffffffff166327e381ec83306040518363ffffffff1660e01b815260040161095f929190612aac565b600060405180830381600087803b15801561097957600080fd5b505af115801561098d573d6000803e3d6000fd5b505050505050565b6060600380546109a490612b96565b80601f01602080910402602001604051908101604052809291908181526020018280546109d090612b96565b8015610a1d5780601f106109f257610100808354040283529160200191610a1d565b820191906000526020600020905b815481529060010190602001808311610a0057829003601f168201915b5050505050905090565b606060048054610a3690612b96565b80601f0160208091040260200160405190810160405280929190818152602001828054610a6290612b96565b8015610aaf5780601f10610a8457610100808354040283529160200191610aaf565b820191906000526020600020905b815481529060010190602001808311610a9257829003601f168201915b5050505050905090565b6060600b805480602002602001604051908101604052809291908181526020016000905b82821015610b7957838290600052602060002090600302016040518060600160405290816000820160009054906101000a900473ffffffffffffffffffffffffffffffffffffffff1673ffffffffffffffffffffffffffffffffffffffff1673ffffffffffffffffffffffffffffffffffffffff1681526020016001820154815260200160028201548152505081526020019060010190610add565b50505050905090565b6000600160009054906101000a900473ffffffffffffffffffffffffffffffffffffffff1690503373ffffffffffffffffffffffffffffffffffffffff168173ffffffffffffffffffffffffffffffffffffffff166390e987ae6040518163ffffffff1660e01b8152600401602060405180830381865afa158015610c0b573d6000803e3d6000fd5b505050506040513d601f19601f82011682018060405250810190610c2f9190612bdc565b73ffffffffffffffffffffffffffffffffffffffff1614610c85576040517f08c379a0000000000000000000000000000000000000000000000000000000008152600401610c7c90612c7b565b60405180910390fd5b6001600d60008473ffffffffffffffffffffffffffffffffffffffff1673ffffffffffffffffffffffffffffffffffffffff16815260200190815260200160002060006101000a81548160ff0219169083151502179055506000600160009054906101000a900473ffffffffffffffffffffffffffffffffffffffff1690508073ffffffffffffffffffffffffffffffffffffffff1663e9ce0efd30856040518363ffffffff1660e01b8152600401610d3f929190612aac565b600060405180830381600087803b158015610d5957600080fd5b505af1158015610d6d573d6000803e3d6000fd5b50505050505050565b60008054906101000a900473ffffffffffffffffffffffffffffffffffffffff1673ffffffffffffffffffffffffffffffffffffffff163373ffffffffffffffffffffffffffffffffffffffff161480610e1d5750600260009054906101000a900473ffffffffffffffffffffffffffffffffffffffff1673ffffffffffffffffffffffffffffffffffffffff163373ffffffffffffffffffffffffffffffffffffffff16145b610e5c576040517f08c379a0000000000000000000000000000000000000000000000000000000008152600401610e5390612b47565b60405180910390fd5b8060078190555050565b6000600854905090565b60008054906101000a900473ffffffffffffffffffffffffffffffffffffffff1673ffffffffffffffffffffffffffffffffffffffff163373ffffffffffffffffffffffffffffffffffffffff161480610f175750600260009054906101000a900473ffffffffffffffffffffffffffffffffffffffff1673ffffffffffffffffffffffffffffffffffffffff163373ffffffffffffffffffffffffffffffffffffffff16145b610f56576040517f08c379a0000000000000000000000000000000000000000000000000000000008152600401610f4d90612b47565b60405180910390fd5b8860039081610f659190612e47565b508760049081610f759190612e47565b508660058190555085600681905550846007819055508360088190555060005b835181101561108a5760006040518060600160405280868481518110610fbe57610fbd612964565b5b60200260200101518152602001858481518110610fde57610fdd612964565b5b60200260200101518152602001848481518110610ffe57610ffd612964565b5b60200260200101518152509050600a819080600181540180825580915050600190039060005260206000209060030201600090919091909150600082015181600001908161104c9190612e47565b506020820151816001019080519060200190611069929190611b04565b50604082015181600201555050508080611082906129c2565b915050610f95565b50505050505050505050565b60008054906101000a900473ffffffffffffffffffffffffffffffffffffffff1673ffffffffffffffffffffffffffffffffffffffff163373ffffffffffffffffffffffffffffffffffffffff16148061113d5750600260009054906101000a900473ffffffffffffffffffffffffffffffffffffffff1673ffffffffffffffffffffffffffffffffffffffff163373ffffffffffffffffffffffffffffffffffffffff16145b61117c576040517f08c379a000000000000000000000000000000000000000000000000000000000815260040161117390612b47565b60405180910390fd5b8060058190555050565b60008054906101000a900473ffffffffffffffffffffffffffffffffffffffff1673ffffffffffffffffffffffffffffffffffffffff163373ffffffffffffffffffffffffffffffffffffffff16148061122d5750600260009054906101000a900473ffffffffffffffffffffffffffffffffffffffff1673ffffffffffffffffffffffffffffffffffffffff163373ffffffffffffffffffffffffffffffffffffffff16145b61126c576040517f08c379a000000000000000000000000000000000000000000000000000000000815260040161126390612b47565b60405180910390fd5b806004908161127b9190612e47565b5050565b6060600a805480602002602001604051908101604052809291908181526020016000905b8282101561144a57838290600052602060002090600302016040518060600160405290816000820180546112d690612b96565b80601f016020809104026020016040519081016040528092919081815260200182805461130290612b96565b801561134f5780601f106113245761010080835404028352916020019161134f565b820191906000526020600020905b81548152906001019060200180831161133257829003601f168201915b5050505050815260200160018201805480602002602001604051908101604052809291908181526020016000905b8282101561142957838290600052602060002001805461139c90612b96565b80601f01602080910402602001604051908101604052809291908181526020018280546113c890612b96565b80156114155780601f106113ea57610100808354040283529160200191611415565b820191906000526020600020905b8154815290600101906020018083116113f857829003601f168201915b50505050508152602001906001019061137d565b505050508152602001600282015481525050815260200190600101906112a3565b50505050905090565b6000600960008373ffffffffffffffffffffffffffffffffffffffff1673ffffffffffffffffffffffffffffffffffffffff16815260200190815260200160002060009054906101000a900460ff169050919050565b6000600654905090565b6000600554905090565b6000600260009054906101000a900473ffffffffffffffffffffffffffffffffffffffff16905090565b60008054906101000a900473ffffffffffffffffffffffffffffffffffffffff1673ffffffffffffffffffffffffffffffffffffffff163373ffffffffffffffffffffffffffffffffffffffff16148061158e5750600260009054906101000a900473ffffffffffffffffffffffffffffffffffffffff1673ffffffffffffffffffffffffffffffffffffffff163373ffffffffffffffffffffffffffffffffffffffff16145b6115cd576040517f08c379a00000000000000000000000000000000000000000000000000000000081526004016115c490612b47565b60405180910390fd5b80600390816115dc9190612e47565b5050565b6000600754905090565b60008054906101000a900473ffffffffffffffffffffffffffffffffffffffff1673ffffffffffffffffffffffffffffffffffffffff163373ffffffffffffffffffffffffffffffffffffffff1614806116915750600260009054906101000a900473ffffffffffffffffffffffffffffffffffffffff1673ffffffffffffffffffffffffffffffffffffffff163373ffffffffffffffffffffffffffffffffffffffff16145b6116d0576040517f08c379a00000000000000000000000000000000000000000000000000000000081526004016116c790612b47565b60405180910390fd5b8060088190555050565b6000600c60008373ffffffffffffffffffffffffffffffffffffffff1673ffffffffffffffffffffffffffffffffffffffff16815260200190815260200160002054600554111580156117765750600960008373ffffffffffffffffffffffffffffffffffffffff1673ffffffffffffffffffffffffffffffffffffffff16815260200190815260200160002060009054906101000a900460ff165b80156117d2575060001515600d60008473ffffffffffffffffffffffffffffffffffffffff1673ffffffffffffffffffffffffffffffffffffffff16815260200190815260200160002060009054906101000a900460ff161515145b9050919050565b6000600c60008373ffffffffffffffffffffffffffffffffffffffff1673ffffffffffffffffffffffffffffffffffffffff168152602001908152602001600020549050919050565b60008054906101000a900473ffffffffffffffffffffffffffffffffffffffff1673ffffffffffffffffffffffffffffffffffffffff163373ffffffffffffffffffffffffffffffffffffffff1614806118c95750600260009054906101000a900473ffffffffffffffffffffffffffffffffffffffff1673ffffffffffffffffffffffffffffffffffffffff163373ffffffffffffffffffffffffffffffffffffffff16145b611908576040517f08c379a00000000000000000000000000000000000000000000000000000000081526004016118ff90612b47565b60405180910390fd5b600a60006119169190611b5d565b60005b8351811015611a0e576000604051806060016040528086848151811061194257611941612964565b5b6020026020010151815260200185848151811061196257611961612964565b5b6020026020010151815260200184848151811061198257611981612964565b5b60200260200101518152509050600a81908060018154018082558091505060019003906000526020600020906003020160009091909190915060008201518160000190816119d09190612e47565b5060208201518160010190805190602001906119ed929190611b04565b50604082015181600201555050508080611a06906129c2565b915050611919565b50505050565b60008054906101000a900473ffffffffffffffffffffffffffffffffffffffff1673ffffffffffffffffffffffffffffffffffffffff163373ffffffffffffffffffffffffffffffffffffffff161480611abb5750600260009054906101000a900473ffffffffffffffffffffffffffffffffffffffff1673ffffffffffffffffffffffffffffffffffffffff163373ffffffffffffffffffffffffffffffffffffffff16145b611afa576040517f08c379a0000000000000000000000000000000000000000000000000000000008152600401611af190612b47565b60405180910390fd5b8060068190555050565b828054828255906000526020600020908101928215611b4c579160200282015b82811115611b4b578251829081611b3b9190612e47565b5091602001919060010190611b24565b5b509050611b599190611b81565b5090565b5080546000825560030290600052602060002090810190611b7e9190611ba5565b50565b5b80821115611ba15760008181611b989190611be4565b50600101611b82565b5090565b5b80821115611be05760008082016000611bbf9190611be4565b600182016000611bcf9190611c24565b600282016000905550600301611ba6565b5090565b508054611bf090612b96565b6000825580601f10611c025750611c21565b601f016020900490600052602060002090810190611c209190611c45565b5b50565b5080546000825590600052602060002090810190611c429190611b81565b50565b5b80821115611c5e576000816000905550600101611c46565b5090565b6000604051905090565b600080fd5b600080fd5b600080fd5b6000601f19601f8301169050919050565b7f4e487b7100000000000000000000000000000000000000000000000000000000600052604160045260246000fd5b611cc482611c7b565b810181811067ffffffffffffffff82111715611ce357611ce2611c8c565b5b80604052505050565b6000611cf6611c62565b9050611d028282611cbb565b919050565b600067ffffffffffffffff821115611d2257611d21611c8c565b5b602082029050602081019050919050565b600080fd5b6000819050919050565b611d4b81611d38565b8114611d5657600080fd5b50565b600081359050611d6881611d42565b92915050565b6000611d81611d7c84611d07565b611cec565b90508083825260208201905060208402830185811115611da457611da3611d33565b5b835b81811015611dcd5780611db98882611d59565b845260208401935050602081019050611da6565b5050509392505050565b600082601f830112611dec57611deb611c76565b5b8135611dfc848260208601611d6e565b91505092915050565b600060208284031215611e1b57611e1a611c6c565b5b600082013567ffffffffffffffff811115611e3957611e38611c71565b5b611e4584828501611dd7565b91505092915050565b600073ffffffffffffffffffffffffffffffffffffffff82169050919050565b6000611e7982611e4e565b9050919050565b611e8981611e6e565b8114611e9457600080fd5b50565b600081359050611ea681611e80565b92915050565b600060208284031215611ec257611ec1611c6c565b5b6000611ed084828501611e97565b91505092915050565b600081519050919050565b600082825260208201905092915050565b60005b83811015611f13578082015181840152602081019050611ef8565b60008484015250505050565b6000611f2a82611ed9565b611f348185611ee4565b9350611f44818560208601611ef5565b611f4d81611c7b565b840191505092915050565b60006020820190508181036000830152611f728184611f1f565b905092915050565b600081519050919050565b600082825260208201905092915050565b6000819050602082019050919050565b611faf81611e6e565b82525050565b611fbe81611d38565b82525050565b606082016000820151611fda6000850182611fa6565b506020820151611fed6020850182611fb5565b5060408201516120006040850182611fb5565b50505050565b60006120128383611fc4565b60608301905092915050565b6000602082019050919050565b600061203682611f7a565b6120408185611f85565b935061204b83611f96565b8060005b8381101561207c5781516120638882612006565b975061206e8361201e565b92505060018101905061204f565b5085935050505092915050565b600060208201905081810360008301526120a3818461202b565b905092915050565b6000602082840312156120c1576120c0611c6c565b5b60006120cf84828501611d59565b91505092915050565b6120e181611d38565b82525050565b60006020820190506120fc60008301846120d8565b92915050565b600080fd5b600067ffffffffffffffff82111561212257612121611c8c565b5b61212b82611c7b565b9050602081019050919050565b82818337600083830152505050565b600061215a61215584612107565b611cec565b90508281526020810184848401111561217657612175612102565b5b612181848285612138565b509392505050565b600082601f83011261219e5761219d611c76565b5b81356121ae848260208601612147565b91505092915050565b600067ffffffffffffffff8211156121d2576121d1611c8c565b5b602082029050602081019050919050565b60006121f66121f1846121b7565b611cec565b9050808382526020820190506020840283018581111561221957612218611d33565b5b835b8181101561226057803567ffffffffffffffff81111561223e5761223d611c76565b5b80860161224b8982612189565b8552602085019450505060208101905061221b565b5050509392505050565b600082601f83011261227f5761227e611c76565b5b813561228f8482602086016121e3565b91505092915050565b600067ffffffffffffffff8211156122b3576122b2611c8c565b5b602082029050602081019050919050565b60006122d76122d284612298565b611cec565b905080838252602082019050602084028301858111156122fa576122f9611d33565b5b835b8181101561234157803567ffffffffffffffff81111561231f5761231e611c76565b5b80860161232c898261226a565b855260208501945050506020810190506122fc565b5050509392505050565b600082601f8301126123605761235f611c76565b5b81356123708482602086016122c4565b91505092915050565b60008060008060008060008060006101208a8c03121561239c5761239b611c6c565b5b60008a013567ffffffffffffffff8111156123ba576123b9611c71565b5b6123c68c828d01612189565b99505060208a013567ffffffffffffffff8111156123e7576123e6611c71565b5b6123f38c828d01612189565b98505060406124048c828d01611d59565b97505060606124158c828d01611d59565b96505060806124268c828d01611d59565b95505060a06124378c828d01611d59565b94505060c08a013567ffffffffffffffff81111561245857612457611c71565b5b6124648c828d0161226a565b93505060e08a013567ffffffffffffffff81111561248557612484611c71565b5b6124918c828d0161234b565b9250506101008a013567ffffffffffffffff8111156124b3576124b2611c71565b5b6124bf8c828d01611dd7565b9150509295985092959850929598565b6000602082840312156124e5576124e4611c6c565b5b600082013567ffffffffffffffff81111561250357612502611c71565b5b61250f84828501612189565b91505092915050565b600081519050919050565b600082825260208201905092915050565b6000819050602082019050919050565b600082825260208201905092915050565b600061256082611ed9565b61256a8185612544565b935061257a818560208601611ef5565b61258381611c7b565b840191505092915050565b600081519050919050565b600082825260208201905092915050565b6000819050602082019050919050565b60006125c68383612555565b905092915050565b6000602082019050919050565b60006125e68261258e565b6125f08185612599565b935083602082028501612602856125aa565b8060005b8581101561263e578484038952815161261f85826125ba565b945061262a836125ce565b925060208a01995050600181019050612606565b50829750879550505050505092915050565b6000606083016000830151848203600086015261266d8282612555565b9150506020830151848203602086015261268782826125db565b915050604083015161269c6040860182611fb5565b508091505092915050565b60006126b38383612650565b905092915050565b6000602082019050919050565b60006126d382612518565b6126dd8185612523565b9350836020820285016126ef85612534565b8060005b8581101561272b578484038952815161270c85826126a7565b9450612717836126bb565b925060208a019950506001810190506126f3565b50829750879550505050505092915050565b6000602082019050818103600083015261275781846126c8565b905092915050565b60008115159050919050565b6127748161275f565b82525050565b600060208201905061278f600083018461276b565b92915050565b61279e81611e6e565b82525050565b60006020820190506127b96000830184612795565b92915050565b6000806000606084860312156127d8576127d7611c6c565b5b600084013567ffffffffffffffff8111156127f6576127f5611c71565b5b6128028682870161226a565b935050602084013567ffffffffffffffff81111561282357612822611c71565b5b61282f8682870161234b565b925050604084013567ffffffffffffffff8111156128505761284f611c71565b5b61285c86828701611dd7565b9150509250925092565b7f5175697a617264206973206e6f74206f70656e20666f72207375626d6973736960008201527f6f6e2e0000000000000000000000000000000000000000000000000000000000602082015250565b60006128c2602383611ee4565b91506128cd82612866565b604082019050919050565b600060208201905081810360008301526128f1816128b5565b9050919050565b7f596f75206861766520616c7265616479207375626d69747465642e0000000000600082015250565b600061292e601b83611ee4565b9150612939826128f8565b602082019050919050565b6000602082019050818103600083015261295d81612921565b9050919050565b7f4e487b7100000000000000000000000000000000000000000000000000000000600052603260045260246000fd5b7f4e487b7100000000000000000000000000000000000000000000000000000000600052601160045260246000fd5b60006129cd82611d38565b91507fffffffffffffffffffffffffffffffffffffffffffffffffffffffffffffffff82036129ff576129fe612993565b5b600182019050919050565b6000612a1582611d38565b9150612a2083611d38565b9250828202612a2e81611d38565b91508282048414831517612a4557612a44612993565b5b5092915050565b7f4e487b7100000000000000000000000000000000000000000000000000000000600052601260045260246000fd5b6000612a8682611d38565b9150612a9183611d38565b925082612aa157612aa0612a4c565b5b828204905092915050565b6000604082019050612ac16000830185612795565b612ace6020830184612795565b9392505050565b7f4f6e6c79205175697a617264466163746f7279206f722054656163686572206360008201527f616e2063616c6c20746869732066756e6374696f6e2e00000000000000000000602082015250565b6000612b31603683611ee4565b9150612b3c82612ad5565b604082019050919050565b60006020820190508181036000830152612b6081612b24565b9050919050565b7f4e487b7100000000000000000000000000000000000000000000000000000000600052602260045260246000fd5b60006002820490506001821680612bae57607f821691505b602082108103612bc157612bc0612b67565b5b50919050565b600081519050612bd681611e80565b92915050565b600060208284031215612bf257612bf1611c6c565b5b6000612c0084828501612bc7565b91505092915050565b7f4f6e6c79205175697a6172644e46542063616e2063616c6c207468697320667560008201527f6e6374696f6e2e00000000000000000000000000000000000000000000000000602082015250565b6000612c65602783611ee4565b9150612c7082612c09565b604082019050919050565b60006020820190508181036000830152612c9481612c58565b9050919050565b60008190508160005260206000209050919050565b60006020601f8301049050919050565b600082821b905092915050565b600060088302612cfd7fffffffffffffffffffffffffffffffffffffffffffffffffffffffffffffffff82612cc0565b612d078683612cc0565b95508019841693508086168417925050509392505050565b6000819050919050565b6000612d44612d3f612d3a84611d38565b612d1f565b611d38565b9050919050565b6000819050919050565b612d5e83612d29565b612d72612d6a82612d4b565b848454612ccd565b825550505050565b600090565b612d87612d7a565b612d92818484612d55565b505050565b5b81811015612db657612dab600082612d7f565b600181019050612d98565b5050565b601f821115612dfb57612dcc81612c9b565b612dd584612cb0565b81016020851015612de4578190505b612df8612df085612cb0565b830182612d97565b50505b505050565b600082821c905092915050565b6000612e1e60001984600802612e00565b1980831691505092915050565b6000612e378383612e0d565b9150826002028217905092915050565b612e5082611ed9565b67ffffffffffffffff811115612e6957612e68611c8c565b5b612e738254612b96565b612e7e828285612dba565b600060209050601f831160018114612eb15760008415612e9f578287015190505b612ea98582612e2b565b865550612f11565b601f198416612ebf86612c9b565b60005b82811015612ee757848901518255600182019150602085019450602081019050612ec2565b86831015612f045784890151612f00601f891682612e0d565b8355505b6001600288020188555050505b50505050505056fea2646970667358221220dfade600917b7bf4ae849bc942d76c362a0810a2de114f6471f0729c3612e55664736f6c63430008110033a26469706673582212204e700d7481784e97774108f2f17e3056e730ee71025a72821786ca73d04ee81b64736f6c63430008110033",
  "linkReferences": {},
  "deployedLinkReferences": {}
}