{
  "_format": "hh-sol-artifact-1",
  "contractName": "QuizardNFT",
  "sourceName": "contracts/QuizardNFT.sol",
  "abi": [
    {
      "inputs": [
        {
          "internalType": "string",
          "name": "name_",
          "type": "string"
        },
        {
          "internalType": "string",
          "name": "symbol_",
          "type": "string"
        },
        {
          "internalType": "bool",
          "name": "transferable_",
          "type": "bool"
        },
        {
          "internalType": "address",
          "name": "quizardManager",
          "type": "address"
        }
      ],
      "stateMutability": "nonpayable",
      "type": "constructor"
    },
    {
      "anonymous": false,
      "inputs": [
        {
          "indexed": true,
          "internalType": "address",
          "name": "owner",
          "type": "address"
        },
        {
          "indexed": true,
          "internalType": "address",
          "name": "approved",
          "type": "address"
        },
        {
          "indexed": true,
          "internalType": "uint256",
          "name": "tokenId",
          "type": "uint256"
        }
      ],
      "name": "Approval",
      "type": "event"
    },
    {
      "anonymous": false,
      "inputs": [
        {
          "indexed": true,
          "internalType": "address",
          "name": "owner",
          "type": "address"
        },
        {
          "indexed": true,
          "internalType": "address",
          "name": "operator",
          "type": "address"
        },
        {
          "indexed": false,
          "internalType": "bool",
          "name": "approved",
          "type": "bool"
        }
      ],
      "name": "ApprovalForAll",
      "type": "event"
    },
    {
      "anonymous": false,
      "inputs": [
        {
          "indexed": true,
          "internalType": "address",
          "name": "previousOwner",
          "type": "address"
        },
        {
          "indexed": true,
          "internalType": "address",
          "name": "newOwner",
          "type": "address"
        }
      ],
      "name": "OwnershipTransferred",
      "type": "event"
    },
    {
      "anonymous": false,
      "inputs": [
        {
          "indexed": true,
          "internalType": "address",
          "name": "from",
          "type": "address"
        },
        {
          "indexed": true,
          "internalType": "address",
          "name": "to",
          "type": "address"
        },
        {
          "indexed": true,
          "internalType": "uint256",
          "name": "tokenId",
          "type": "uint256"
        }
      ],
      "name": "Transfer",
      "type": "event"
    },
    {
      "inputs": [
        {
          "internalType": "address",
          "name": "to",
          "type": "address"
        },
        {
          "internalType": "uint256",
          "name": "tokenId",
          "type": "uint256"
        }
      ],
      "name": "approve",
      "outputs": [],
      "stateMutability": "nonpayable",
      "type": "function"
    },
    {
      "inputs": [
        {
          "internalType": "address",
          "name": "owner",
          "type": "address"
        }
      ],
      "name": "balanceOf",
      "outputs": [
        {
          "internalType": "uint256",
          "name": "",
          "type": "uint256"
        }
      ],
      "stateMutability": "view",
      "type": "function"
    },
    {
      "inputs": [
        {
          "internalType": "uint256",
          "name": "tokenId",
          "type": "uint256"
        }
      ],
      "name": "getApproved",
      "outputs": [
        {
          "internalType": "address",
          "name": "",
          "type": "address"
        }
      ],
      "stateMutability": "view",
      "type": "function"
    },
    {
      "inputs": [
        {
          "internalType": "address",
          "name": "owner",
          "type": "address"
        },
        {
          "internalType": "address",
          "name": "operator",
          "type": "address"
        }
      ],
      "name": "isApprovedForAll",
      "outputs": [
        {
          "internalType": "bool",
          "name": "",
          "type": "bool"
        }
      ],
      "stateMutability": "view",
      "type": "function"
    },
    {
      "inputs": [
        {
          "internalType": "address",
          "name": "quizard",
          "type": "address"
        },
        {
          "internalType": "address",
          "name": "student",
          "type": "address"
        }
      ],
      "name": "mintQuizardNFTForStudent",
      "outputs": [
        {
          "internalType": "uint256",
          "name": "",
          "type": "uint256"
        }
      ],
      "stateMutability": "payable",
      "type": "function"
    },
    {
      "inputs": [],
      "name": "name",
      "outputs": [
        {
          "internalType": "string",
          "name": "",
          "type": "string"
        }
      ],
      "stateMutability": "view",
      "type": "function"
    },
    {
      "inputs": [],
      "name": "owner",
      "outputs": [
        {
          "internalType": "address",
          "name": "",
          "type": "address"
        }
      ],
      "stateMutability": "view",
      "type": "function"
    },
    {
      "inputs": [
        {
          "internalType": "uint256",
          "name": "tokenId",
          "type": "uint256"
        }
      ],
      "name": "ownerOf",
      "outputs": [
        {
          "internalType": "address",
          "name": "",
          "type": "address"
        }
      ],
      "stateMutability": "view",
      "type": "function"
    },
    {
      "inputs": [],
      "name": "renounceOwnership",
      "outputs": [],
      "stateMutability": "nonpayable",
      "type": "function"
    },
    {
      "inputs": [
        {
          "internalType": "address",
          "name": "from",
          "type": "address"
        },
        {
          "internalType": "address",
          "name": "to",
          "type": "address"
        },
        {
          "internalType": "uint256",
          "name": "tokenId",
          "type": "uint256"
        }
      ],
      "name": "safeTransferFrom",
      "outputs": [],
      "stateMutability": "nonpayable",
      "type": "function"
    },
    {
      "inputs": [
        {
          "internalType": "address",
          "name": "from",
          "type": "address"
        },
        {
          "internalType": "address",
          "name": "to",
          "type": "address"
        },
        {
          "internalType": "uint256",
          "name": "tokenId",
          "type": "uint256"
        },
        {
          "internalType": "bytes",
          "name": "data",
          "type": "bytes"
        }
      ],
      "name": "safeTransferFrom",
      "outputs": [],
      "stateMutability": "nonpayable",
      "type": "function"
    },
    {
      "inputs": [
        {
          "internalType": "address",
          "name": "operator",
          "type": "address"
        },
        {
          "internalType": "bool",
          "name": "approved",
          "type": "bool"
        }
      ],
      "name": "setApprovalForAll",
      "outputs": [],
      "stateMutability": "nonpayable",
      "type": "function"
    },
    {
      "inputs": [
        {
          "internalType": "string",
          "name": "name_",
          "type": "string"
        }
      ],
      "name": "setName",
      "outputs": [],
      "stateMutability": "nonpayable",
      "type": "function"
    },
    {
      "inputs": [
        {
          "internalType": "string",
          "name": "symbol_",
          "type": "string"
        }
      ],
      "name": "setSymbol",
      "outputs": [],
      "stateMutability": "nonpayable",
      "type": "function"
    },
    {
      "inputs": [
        {
          "internalType": "bool",
          "name": "transferable_",
          "type": "bool"
        }
      ],
      "name": "setTransferable",
      "outputs": [],
      "stateMutability": "nonpayable",
      "type": "function"
    },
    {
      "inputs": [
        {
          "internalType": "bytes4",
          "name": "interfaceId",
          "type": "bytes4"
        }
      ],
      "name": "supportsInterface",
      "outputs": [
        {
          "internalType": "bool",
          "name": "",
          "type": "bool"
        }
      ],
      "stateMutability": "view",
      "type": "function"
    },
    {
      "inputs": [],
      "name": "symbol",
      "outputs": [
        {
          "internalType": "string",
          "name": "",
          "type": "string"
        }
      ],
      "stateMutability": "view",
      "type": "function"
    },
    {
      "inputs": [
        {
          "internalType": "uint256",
          "name": "index",
          "type": "uint256"
        }
      ],
      "name": "tokenByIndex",
      "outputs": [
        {
          "internalType": "uint256",
          "name": "",
          "type": "uint256"
        }
      ],
      "stateMutability": "view",
      "type": "function"
    },
    {
      "inputs": [
        {
          "internalType": "address",
          "name": "owner",
          "type": "address"
        },
        {
          "internalType": "uint256",
          "name": "index",
          "type": "uint256"
        }
      ],
      "name": "tokenOfOwnerByIndex",
      "outputs": [
        {
          "internalType": "uint256",
          "name": "",
          "type": "uint256"
        }
      ],
      "stateMutability": "view",
      "type": "function"
    },
    {
      "inputs": [
        {
          "internalType": "uint256",
          "name": "tokenId",
          "type": "uint256"
        }
      ],
      "name": "tokenURI",
      "outputs": [
        {
          "internalType": "string",
          "name": "",
          "type": "string"
        }
      ],
      "stateMutability": "view",
      "type": "function"
    },
    {
      "inputs": [],
      "name": "totalSupply",
      "outputs": [
        {
          "internalType": "uint256",
          "name": "",
          "type": "uint256"
        }
      ],
      "stateMutability": "view",
      "type": "function"
    },
    {
      "inputs": [
        {
          "internalType": "address",
          "name": "from",
          "type": "address"
        },
        {
          "internalType": "address",
          "name": "to",
          "type": "address"
        },
        {
          "internalType": "uint256",
          "name": "tokenId",
          "type": "uint256"
        }
      ],
      "name": "transferFrom",
      "outputs": [],
      "stateMutability": "nonpayable",
      "type": "function"
    },
    {
      "inputs": [
        {
          "internalType": "address",
          "name": "newOwner",
          "type": "address"
        }
      ],
      "name": "transferOwnership",
      "outputs": [],
      "stateMutability": "nonpayable",
      "type": "function"
    },
    {
      "inputs": [],
      "name": "transferable",
      "outputs": [
        {
          "internalType": "bool",
          "name": "",
          "type": "bool"
        }
      ],
      "stateMutability": "view",
      "type": "function"
    },
    {
      "inputs": [
        {
          "internalType": "string",
          "name": "name_",
          "type": "string"
        },
        {
          "internalType": "string",
          "name": "symbol_",
          "type": "string"
        },
        {
          "internalType": "bool",
          "name": "transferable_",
          "type": "bool"
        }
      ],
      "name": "updateSettings",
      "outputs": [],
      "stateMutability": "nonpayable",
      "type": "function"
    },
    {
      "inputs": [],
      "name": "withdraw",
      "outputs": [],
      "stateMutability": "nonpayable",
      "type": "function"
    }
  ],
  "bytecode": "0x60806040526000600f60006101000a81548160ff0219169083151502179055503480156200002c57600080fd5b5060405162004a8f38038062004a8f833981810160405281019062000052919062000444565b604051806020016040528060008152506040518060200160405280600081525081600090816200008391906200073f565b5080600190816200009591906200073f565b505050620000b8620000ac6200014160201b60201c565b6200014960201b60201c565b83600d9081620000c991906200073f565b5082600e9081620000db91906200073f565b5081600f60006101000a81548160ff02191690831515021790555080600f60016101000a81548173ffffffffffffffffffffffffffffffffffffffff021916908373ffffffffffffffffffffffffffffffffffffffff1602179055505050505062000826565b600033905090565b6000600b60009054906101000a900473ffffffffffffffffffffffffffffffffffffffff16905081600b60006101000a81548173ffffffffffffffffffffffffffffffffffffffff021916908373ffffffffffffffffffffffffffffffffffffffff1602179055508173ffffffffffffffffffffffffffffffffffffffff168173ffffffffffffffffffffffffffffffffffffffff167f8be0079c531659141344cd1fd0a4f28419497f9722a3daafe3b4186f6b6457e060405160405180910390a35050565b6000604051905090565b600080fd5b600080fd5b600080fd5b600080fd5b6000601f19601f8301169050919050565b7f4e487b7100000000000000000000000000000000000000000000000000000000600052604160045260246000fd5b62000278826200022d565b810181811067ffffffffffffffff821117156200029a57620002996200023e565b5b80604052505050565b6000620002af6200020f565b9050620002bd82826200026d565b919050565b600067ffffffffffffffff821115620002e057620002df6200023e565b5b620002eb826200022d565b9050602081019050919050565b60005b8381101562000318578082015181840152602081019050620002fb565b60008484015250505050565b60006200033b6200033584620002c2565b620002a3565b9050828152602081018484840111156200035a576200035962000228565b5b62000367848285620002f8565b509392505050565b600082601f83011262000387576200038662000223565b5b81516200039984826020860162000324565b91505092915050565b60008115159050919050565b620003b981620003a2565b8114620003c557600080fd5b50565b600081519050620003d981620003ae565b92915050565b600073ffffffffffffffffffffffffffffffffffffffff82169050919050565b60006200040c82620003df565b9050919050565b6200041e81620003ff565b81146200042a57600080fd5b50565b6000815190506200043e8162000413565b92915050565b6000806000806080858703121562000461576200046062000219565b5b600085015167ffffffffffffffff8111156200048257620004816200021e565b5b62000490878288016200036f565b945050602085015167ffffffffffffffff811115620004b457620004b36200021e565b5b620004c2878288016200036f565b9350506040620004d587828801620003c8565b9250506060620004e8878288016200042d565b91505092959194509250565b600081519050919050565b7f4e487b7100000000000000000000000000000000000000000000000000000000600052602260045260246000fd5b600060028204905060018216806200054757607f821691505b6020821081036200055d576200055c620004ff565b5b50919050565b60008190508160005260206000209050919050565b60006020601f8301049050919050565b600082821b905092915050565b600060088302620005c77fffffffffffffffffffffffffffffffffffffffffffffffffffffffffffffffff8262000588565b620005d3868362000588565b95508019841693508086168417925050509392505050565b6000819050919050565b6000819050919050565b6000620006206200061a6200061484620005eb565b620005f5565b620005eb565b9050919050565b6000819050919050565b6200063c83620005ff565b620006546200064b8262000627565b84845462000595565b825550505050565b600090565b6200066b6200065c565b6200067881848462000631565b505050565b5b81811015620006a0576200069460008262000661565b6001810190506200067e565b5050565b601f821115620006ef57620006b98162000563565b620006c48462000578565b81016020851015620006d4578190505b620006ec620006e38562000578565b8301826200067d565b50505b505050565b600082821c905092915050565b60006200071460001984600802620006f4565b1980831691505092915050565b60006200072f838362000701565b9150826002028217905092915050565b6200074a82620004f4565b67ffffffffffffffff8111156200076657620007656200023e565b5b6200077282546200052e565b6200077f828285620006a4565b600060209050601f831160018114620007b75760008415620007a2578287015190505b620007ae858262000721565b8655506200081e565b601f198416620007c78662000563565b60005b82811015620007f157848901518255600182019150602085019450602081019050620007ca565b868310156200081157848901516200080d601f89168262000701565b8355505b6001600288020188555050505b505050505050565b61425980620008366000396000f3fe6080604052600436106101815760003560e01c806370a08231116100d1578063a22cb4651161008a578063c47f002711610064578063c47f002714610571578063c87b56dd1461059a578063e985e9c5146105d7578063f2fde38b1461061457610181565b8063a22cb465146104f6578063b84c82461461051f578063b88d4fde1461054857610181565b806370a08231146103f8578063715018a6146104355780638da5cb5b1461044c57806392ff0d311461047757806395d89b41146104a25780639cd23707146104cd57610181565b80632f745c591161013e5780633da9b3cf116101185780633da9b3cf1461032c57806342842e0e146103555780634f6ccce71461037e5780636352211e146103bb57610181565b80632f745c59146102a85780633ccfd60b146102e55780633d3126b0146102fc57610181565b806301ffc9a71461018657806306fdde03146101c3578063081812fc146101ee578063095ea7b31461022b57806318160ddd1461025457806323b872dd1461027f575b600080fd5b34801561019257600080fd5b506101ad60048036038101906101a89190612a7a565b61063d565b6040516101ba9190612ac2565b60405180910390f35b3480156101cf57600080fd5b506101d861064f565b6040516101e59190612b6d565b60405180910390f35b3480156101fa57600080fd5b5061021560048036038101906102109190612bc5565b6106e1565b6040516102229190612c33565b60405180910390f35b34801561023757600080fd5b50610252600480360381019061024d9190612c7a565b610727565b005b34801561026057600080fd5b5061026961083e565b6040516102769190612cc9565b60405180910390f35b34801561028b57600080fd5b506102a660048036038101906102a19190612ce4565b61084b565b005b3480156102b457600080fd5b506102cf60048036038101906102ca9190612c7a565b6108aa565b6040516102dc9190612cc9565b60405180910390f35b3480156102f157600080fd5b506102fa61094f565b005b61031660048036038101906103119190612d37565b6109ea565b6040516103239190612cc9565b60405180910390f35b34801561033857600080fd5b50610353600480360381019061034e9190612ed8565b610c60565b005b34801561036157600080fd5b5061037c60048036038101906103779190612ce4565b610ca7565b005b34801561038a57600080fd5b506103a560048036038101906103a09190612bc5565b610d06565b6040516103b29190612cc9565b60405180910390f35b3480156103c757600080fd5b506103e260048036038101906103dd9190612bc5565b610d77565b6040516103ef9190612c33565b60405180910390f35b34801561040457600080fd5b5061041f600480360381019061041a9190612f63565b610dfd565b60405161042c9190612cc9565b60405180910390f35b34801561044157600080fd5b5061044a610eb4565b005b34801561045857600080fd5b50610461610ec8565b60405161046e9190612c33565b60405180910390f35b34801561048357600080fd5b5061048c610ef2565b6040516104999190612ac2565b60405180910390f35b3480156104ae57600080fd5b506104b7610f09565b6040516104c49190612b6d565b60405180910390f35b3480156104d957600080fd5b506104f460048036038101906104ef9190612f90565b610f9b565b005b34801561050257600080fd5b5061051d60048036038101906105189190612fbd565b610fc0565b005b34801561052b57600080fd5b5061054660048036038101906105419190612ffd565b610fd6565b005b34801561055457600080fd5b5061056f600480360381019061056a91906130e7565b610ff1565b005b34801561057d57600080fd5b5061059860048036038101906105939190612ffd565b611052565b005b3480156105a657600080fd5b506105c160048036038101906105bc9190612bc5565b61106d565b6040516105ce9190612b6d565b60405180910390f35b3480156105e357600080fd5b506105fe60048036038101906105f99190612d37565b61107f565b60405161060b9190612ac2565b60405180910390f35b34801561062057600080fd5b5061063b60048036038101906106369190612f63565b611113565b005b600061064882611196565b9050919050565b6060600d805461065e90613199565b80601f016020809104026020016040519081016040528092919081815260200182805461068a90613199565b80156106d75780601f106106ac576101008083540402835291602001916106d7565b820191906000526020600020905b8154815290600101906020018083116106ba57829003601f168201915b5050505050905090565b60006106ec82611210565b6004600083815260200190815260200160002060009054906101000a900473ffffffffffffffffffffffffffffffffffffffff169050919050565b600061073282610d77565b90508073ffffffffffffffffffffffffffffffffffffffff168373ffffffffffffffffffffffffffffffffffffffff16036107a2576040517f08c379a00000000000000000000000000000000000000000000000000000000081526004016107999061323c565b60405180910390fd5b8073ffffffffffffffffffffffffffffffffffffffff166107c161125b565b73ffffffffffffffffffffffffffffffffffffffff1614806107f057506107ef816107ea61125b565b61107f565b5b61082f576040517f08c379a0000000000000000000000000000000000000000000000000000000008152600401610826906132ce565b60405180910390fd5b6108398383611263565b505050565b6000600980549050905090565b600f60009054906101000a900460ff1661089a576040517f08c379a00000000000000000000000000000000000000000000000000000000081526004016108919061333a565b60405180910390fd5b6108a583838361131c565b505050565b60006108b583610dfd565b82106108f6576040517f08c379a00000000000000000000000000000000000000000000000000000000081526004016108ed906133cc565b60405180910390fd5b600760008473ffffffffffffffffffffffffffffffffffffffff1673ffffffffffffffffffffffffffffffffffffffff168152602001908152602001600020600083815260200190815260200160002054905092915050565b61095761137c565b6000471161099a576040517f08c379a000000000000000000000000000000000000000000000000000000000815260040161099190613438565b60405180910390fd5b6109a2610ec8565b73ffffffffffffffffffffffffffffffffffffffff166108fc479081150290604051600060405180830381858888f193505050501580156109e7573d6000803e3d6000fd5b50565b60003373ffffffffffffffffffffffffffffffffffffffff16600f60019054906101000a900473ffffffffffffffffffffffffffffffffffffffff1673ffffffffffffffffffffffffffffffffffffffff1663f9e9b9046040518163ffffffff1660e01b8152600401602060405180830381865afa158015610a70573d6000803e3d6000fd5b505050506040513d601f19601f82011682018060405250810190610a94919061346d565b73ffffffffffffffffffffffffffffffffffffffff1614610aea576040517f08c379a0000000000000000000000000000000000000000000000000000000008152600401610ae19061350c565b60405180910390fd5b6000839050600115158173ffffffffffffffffffffffffffffffffffffffff1663d0fc1146856040518263ffffffff1660e01b8152600401610b2c9190612c33565b602060405180830381865afa158015610b49573d6000803e3d6000fd5b505050506040513d601f19601f82011682018060405250810190610b6d9190613541565b151514610baf576040517f08c379a0000000000000000000000000000000000000000000000000000000008152600401610ba6906135e0565b60405180910390fd5b610bb9600c6113fa565b6000610bc5600c611410565b9050610bd1848261141e565b610bea816040518060200160405280600081525061163b565b8173ffffffffffffffffffffffffffffffffffffffff16633b16ed2d856040518263ffffffff1660e01b8152600401610c239190612c33565b600060405180830381600087803b158015610c3d57600080fd5b505af1158015610c51573d6000803e3d6000fd5b50505050809250505092915050565b610c6861137c565b82600d9081610c7791906137ac565b5081600e9081610c8791906137ac565b5080600f60006101000a81548160ff021916908315150217905550505050565b600f60009054906101000a900460ff16610cf6576040517f08c379a0000000000000000000000000000000000000000000000000000000008152600401610ced9061333a565b60405180910390fd5b610d018383836116a8565b505050565b6000610d1061083e565b8210610d51576040517f08c379a0000000000000000000000000000000000000000000000000000000008152600401610d48906138f0565b60405180910390fd5b60098281548110610d6557610d64613910565b5b90600052602060002001549050919050565b600080610d83836116c8565b9050600073ffffffffffffffffffffffffffffffffffffffff168173ffffffffffffffffffffffffffffffffffffffff1603610df4576040517f08c379a0000000000000000000000000000000000000000000000000000000008152600401610deb9061398b565b60405180910390fd5b80915050919050565b60008073ffffffffffffffffffffffffffffffffffffffff168273ffffffffffffffffffffffffffffffffffffffff1603610e6d576040517f08c379a0000000000000000000000000000000000000000000000000000000008152600401610e6490613a1d565b60405180910390fd5b600360008373ffffffffffffffffffffffffffffffffffffffff1673ffffffffffffffffffffffffffffffffffffffff168152602001908152602001600020549050919050565b610ebc61137c565b610ec66000611705565b565b6000600b60009054906101000a900473ffffffffffffffffffffffffffffffffffffffff16905090565b6000600f60009054906101000a900460ff16905090565b6060600e8054610f1890613199565b80601f0160208091040260200160405190810160405280929190818152602001828054610f4490613199565b8015610f915780601f10610f6657610100808354040283529160200191610f91565b820191906000526020600020905b815481529060010190602001808311610f7457829003601f168201915b5050505050905090565b610fa361137c565b80600f60006101000a81548160ff02191690831515021790555050565b610fd2610fcb61125b565b83836117cb565b5050565b610fde61137c565b80600e9081610fed91906137ac565b5050565b600f60009054906101000a900460ff16611040576040517f08c379a00000000000000000000000000000000000000000000000000000000081526004016110379061333a565b60405180910390fd5b61104c84848484611937565b50505050565b61105a61137c565b80600d908161106991906137ac565b5050565b606061107882611999565b9050919050565b6000600560008473ffffffffffffffffffffffffffffffffffffffff1673ffffffffffffffffffffffffffffffffffffffff16815260200190815260200160002060008373ffffffffffffffffffffffffffffffffffffffff1673ffffffffffffffffffffffffffffffffffffffff16815260200190815260200160002060009054906101000a900460ff16905092915050565b61111b61137c565b600073ffffffffffffffffffffffffffffffffffffffff168173ffffffffffffffffffffffffffffffffffffffff160361118a576040517f08c379a000000000000000000000000000000000000000000000000000000000815260040161118190613aaf565b60405180910390fd5b61119381611705565b50565b60007f780e9d63000000000000000000000000000000000000000000000000000000007bffffffffffffffffffffffffffffffffffffffffffffffffffffffff1916827bffffffffffffffffffffffffffffffffffffffffffffffffffffffff19161480611209575061120882611aab565b5b9050919050565b61121981611b8d565b611258576040517f08c379a000000000000000000000000000000000000000000000000000000000815260040161124f9061398b565b60405180910390fd5b50565b600033905090565b816004600083815260200190815260200160002060006101000a81548173ffffffffffffffffffffffffffffffffffffffff021916908373ffffffffffffffffffffffffffffffffffffffff160217905550808273ffffffffffffffffffffffffffffffffffffffff166112d683610d77565b73ffffffffffffffffffffffffffffffffffffffff167f8c5be1e5ebec7d5bd14f71427d1e84f3dd0314c0f7b2291e5b200ac8c7c3b92560405160405180910390a45050565b61132d61132761125b565b82611bce565b61136c576040517f08c379a000000000000000000000000000000000000000000000000000000000815260040161136390613b41565b60405180910390fd5b611377838383611c63565b505050565b61138461125b565b73ffffffffffffffffffffffffffffffffffffffff166113a2610ec8565b73ffffffffffffffffffffffffffffffffffffffff16146113f8576040517f08c379a00000000000000000000000000000000000000000000000000000000081526004016113ef90613bad565b60405180910390fd5b565b6001816000016000828254019250508190555050565b600081600001549050919050565b600073ffffffffffffffffffffffffffffffffffffffff168273ffffffffffffffffffffffffffffffffffffffff160361148d576040517f08c379a000000000000000000000000000000000000000000000000000000000815260040161148490613c19565b60405180910390fd5b61149681611b8d565b156114d6576040517f08c379a00000000000000000000000000000000000000000000000000000000081526004016114cd90613c85565b60405180910390fd5b6114e4600083836001611f5c565b6114ed81611b8d565b1561152d576040517f08c379a000000000000000000000000000000000000000000000000000000000815260040161152490613c85565b60405180910390fd5b6001600360008473ffffffffffffffffffffffffffffffffffffffff1673ffffffffffffffffffffffffffffffffffffffff16815260200190815260200160002060008282540192505081905550816002600083815260200190815260200160002060006101000a81548173ffffffffffffffffffffffffffffffffffffffff021916908373ffffffffffffffffffffffffffffffffffffffff160217905550808273ffffffffffffffffffffffffffffffffffffffff16600073ffffffffffffffffffffffffffffffffffffffff167fddf252ad1be2c89b69c2b068fc378daa952ba7f163c4a11628f55a4df523b3ef60405160405180910390a4611637600083836001611f6e565b5050565b61164482611b8d565b611683576040517f08c379a000000000000000000000000000000000000000000000000000000000815260040161167a90613d17565b60405180910390fd5b806006600084815260200190815260200160002090816116a391906137ac565b505050565b6116c383838360405180602001604052806000815250610ff1565b505050565b60006002600083815260200190815260200160002060009054906101000a900473ffffffffffffffffffffffffffffffffffffffff169050919050565b6000600b60009054906101000a900473ffffffffffffffffffffffffffffffffffffffff16905081600b60006101000a81548173ffffffffffffffffffffffffffffffffffffffff021916908373ffffffffffffffffffffffffffffffffffffffff1602179055508173ffffffffffffffffffffffffffffffffffffffff168173ffffffffffffffffffffffffffffffffffffffff167f8be0079c531659141344cd1fd0a4f28419497f9722a3daafe3b4186f6b6457e060405160405180910390a35050565b8173ffffffffffffffffffffffffffffffffffffffff168373ffffffffffffffffffffffffffffffffffffffff1603611839576040517f08c379a000000000000000000000000000000000000000000000000000000000815260040161183090613d83565b60405180910390fd5b80600560008573ffffffffffffffffffffffffffffffffffffffff1673ffffffffffffffffffffffffffffffffffffffff16815260200190815260200160002060008473ffffffffffffffffffffffffffffffffffffffff1673ffffffffffffffffffffffffffffffffffffffff16815260200190815260200160002060006101000a81548160ff0219169083151502179055508173ffffffffffffffffffffffffffffffffffffffff168373ffffffffffffffffffffffffffffffffffffffff167f17307eab39ab6107e8899845ad3d59bd9653f200f220920489ca2b5937696c318360405161192a9190612ac2565b60405180910390a3505050565b61194861194261125b565b83611bce565b611987576040517f08c379a000000000000000000000000000000000000000000000000000000000815260040161197e90613b41565b60405180910390fd5b61199384848484611f74565b50505050565b60606119a482611210565b60006006600084815260200190815260200160002080546119c490613199565b80601f01602080910402602001604051908101604052809291908181526020018280546119f090613199565b8015611a3d5780601f10611a1257610100808354040283529160200191611a3d565b820191906000526020600020905b815481529060010190602001808311611a2057829003601f168201915b505050505090506000611a4e611fd0565b90506000815103611a63578192505050611aa6565b600082511115611a98578082604051602001611a80929190613ddf565b60405160208183030381529060405292505050611aa6565b611aa184611fe7565b925050505b919050565b60007f80ac58cd000000000000000000000000000000000000000000000000000000007bffffffffffffffffffffffffffffffffffffffffffffffffffffffff1916827bffffffffffffffffffffffffffffffffffffffffffffffffffffffff19161480611b7657507f5b5e139f000000000000000000000000000000000000000000000000000000007bffffffffffffffffffffffffffffffffffffffffffffffffffffffff1916827bffffffffffffffffffffffffffffffffffffffffffffffffffffffff1916145b80611b865750611b858261204f565b5b9050919050565b60008073ffffffffffffffffffffffffffffffffffffffff16611baf836116c8565b73ffffffffffffffffffffffffffffffffffffffff1614159050919050565b600080611bda83610d77565b90508073ffffffffffffffffffffffffffffffffffffffff168473ffffffffffffffffffffffffffffffffffffffff161480611c1c5750611c1b818561107f565b5b80611c5a57508373ffffffffffffffffffffffffffffffffffffffff16611c42846106e1565b73ffffffffffffffffffffffffffffffffffffffff16145b91505092915050565b8273ffffffffffffffffffffffffffffffffffffffff16611c8382610d77565b73ffffffffffffffffffffffffffffffffffffffff1614611cd9576040517f08c379a0000000000000000000000000000000000000000000000000000000008152600401611cd090613e75565b60405180910390fd5b600073ffffffffffffffffffffffffffffffffffffffff168273ffffffffffffffffffffffffffffffffffffffff1603611d48576040517f08c379a0000000000000000000000000000000000000000000000000000000008152600401611d3f90613f07565b60405180910390fd5b611d558383836001611f5c565b8273ffffffffffffffffffffffffffffffffffffffff16611d7582610d77565b73ffffffffffffffffffffffffffffffffffffffff1614611dcb576040517f08c379a0000000000000000000000000000000000000000000000000000000008152600401611dc290613e75565b60405180910390fd5b6004600082815260200190815260200160002060006101000a81549073ffffffffffffffffffffffffffffffffffffffff02191690556001600360008573ffffffffffffffffffffffffffffffffffffffff1673ffffffffffffffffffffffffffffffffffffffff168152602001908152602001600020600082825403925050819055506001600360008473ffffffffffffffffffffffffffffffffffffffff1673ffffffffffffffffffffffffffffffffffffffff16815260200190815260200160002060008282540192505081905550816002600083815260200190815260200160002060006101000a81548173ffffffffffffffffffffffffffffffffffffffff021916908373ffffffffffffffffffffffffffffffffffffffff160217905550808273ffffffffffffffffffffffffffffffffffffffff168473ffffffffffffffffffffffffffffffffffffffff167fddf252ad1be2c89b69c2b068fc378daa952ba7f163c4a11628f55a4df523b3ef60405160405180910390a4611f578383836001611f6e565b505050565b611f68848484846120b9565b50505050565b50505050565b611f7f848484611c63565b611f8b84848484612217565b611fca576040517f08c379a0000000000000000000000000000000000000000000000000000000008152600401611fc190613f99565b60405180910390fd5b50505050565b606060405180602001604052806000815250905090565b6060611ff282611210565b6000611ffc611fd0565b9050600081511161201c5760405180602001604052806000815250612047565b806120268461239e565b604051602001612037929190613ddf565b6040516020818303038152906040525b915050919050565b60007f01ffc9a7000000000000000000000000000000000000000000000000000000007bffffffffffffffffffffffffffffffffffffffffffffffffffffffff1916827bffffffffffffffffffffffffffffffffffffffffffffffffffffffff1916149050919050565b6120c58484848461246c565b6001811115612109576040517f08c379a00000000000000000000000000000000000000000000000000000000081526004016121009061402b565b60405180910390fd5b6000829050600073ffffffffffffffffffffffffffffffffffffffff168573ffffffffffffffffffffffffffffffffffffffff16036121505761214b81612592565b61218f565b8373ffffffffffffffffffffffffffffffffffffffff168573ffffffffffffffffffffffffffffffffffffffff161461218e5761218d85826125db565b5b5b600073ffffffffffffffffffffffffffffffffffffffff168473ffffffffffffffffffffffffffffffffffffffff16036121d1576121cc81612748565b612210565b8473ffffffffffffffffffffffffffffffffffffffff168473ffffffffffffffffffffffffffffffffffffffff161461220f5761220e8482612819565b5b5b5050505050565b60006122388473ffffffffffffffffffffffffffffffffffffffff16612898565b15612391578373ffffffffffffffffffffffffffffffffffffffff1663150b7a0261226161125b565b8786866040518563ffffffff1660e01b815260040161228394939291906140a0565b6020604051808303816000875af19250505080156122bf57506040513d601f19601f820116820180604052508101906122bc9190614101565b60015b612341573d80600081146122ef576040519150601f19603f3d011682016040523d82523d6000602084013e6122f4565b606091505b506000815103612339576040517f08c379a000000000000000000000000000000000000000000000000000000000815260040161233090613f99565b60405180910390fd5b805181602001fd5b63150b7a0260e01b7bffffffffffffffffffffffffffffffffffffffffffffffffffffffff1916817bffffffffffffffffffffffffffffffffffffffffffffffffffffffff191614915050612396565b600190505b949350505050565b6060600060016123ad846128bb565b01905060008167ffffffffffffffff8111156123cc576123cb612d81565b5b6040519080825280601f01601f1916602001820160405280156123fe5781602001600182028036833780820191505090505b509050600082602001820190505b600115612461578080600190039150507f3031323334353637383961626364656600000000000000000000000000000000600a86061a8153600a85816124555761245461412e565b5b0494506000850361240c575b819350505050919050565b600181111561258c57600073ffffffffffffffffffffffffffffffffffffffff168473ffffffffffffffffffffffffffffffffffffffff16146125005780600360008673ffffffffffffffffffffffffffffffffffffffff1673ffffffffffffffffffffffffffffffffffffffff16815260200190815260200160002060008282546124f8919061418c565b925050819055505b600073ffffffffffffffffffffffffffffffffffffffff168373ffffffffffffffffffffffffffffffffffffffff161461258b5780600360008573ffffffffffffffffffffffffffffffffffffffff1673ffffffffffffffffffffffffffffffffffffffff168152602001908152602001600020600082825461258391906141c0565b925050819055505b5b50505050565b600980549050600a600083815260200190815260200160002081905550600981908060018154018082558091505060019003906000526020600020016000909190919091505550565b600060016125e884610dfd565b6125f2919061418c565b90506000600860008481526020019081526020016000205490508181146126d7576000600760008673ffffffffffffffffffffffffffffffffffffffff1673ffffffffffffffffffffffffffffffffffffffff168152602001908152602001600020600084815260200190815260200160002054905080600760008773ffffffffffffffffffffffffffffffffffffffff1673ffffffffffffffffffffffffffffffffffffffff168152602001908152602001600020600084815260200190815260200160002081905550816008600083815260200190815260200160002081905550505b6008600084815260200190815260200160002060009055600760008573ffffffffffffffffffffffffffffffffffffffff1673ffffffffffffffffffffffffffffffffffffffff16815260200190815260200160002060008381526020019081526020016000206000905550505050565b6000600160098054905061275c919061418c565b90506000600a600084815260200190815260200160002054905060006009838154811061278c5761278b613910565b5b9060005260206000200154905080600983815481106127ae576127ad613910565b5b906000526020600020018190555081600a600083815260200190815260200160002081905550600a60008581526020019081526020016000206000905560098054806127fd576127fc6141f4565b5b6001900381819060005260206000200160009055905550505050565b600061282483610dfd565b905081600760008573ffffffffffffffffffffffffffffffffffffffff1673ffffffffffffffffffffffffffffffffffffffff168152602001908152602001600020600083815260200190815260200160002081905550806008600084815260200190815260200160002081905550505050565b6000808273ffffffffffffffffffffffffffffffffffffffff163b119050919050565b600080600090507a184f03e93ff9f4daa797ed6e38ed64bf6a1f0100000000000000008310612919577a184f03e93ff9f4daa797ed6e38ed64bf6a1f010000000000000000838161290f5761290e61412e565b5b0492506040810190505b6d04ee2d6d415b85acef81000000008310612956576d04ee2d6d415b85acef8100000000838161294c5761294b61412e565b5b0492506020810190505b662386f26fc10000831061298557662386f26fc10000838161297b5761297a61412e565b5b0492506010810190505b6305f5e10083106129ae576305f5e10083816129a4576129a361412e565b5b0492506008810190505b61271083106129d35761271083816129c9576129c861412e565b5b0492506004810190505b606483106129f657606483816129ec576129eb61412e565b5b0492506002810190505b600a8310612a05576001810190505b80915050919050565b6000604051905090565b600080fd5b600080fd5b60007fffffffff0000000000000000000000000000000000000000000000000000000082169050919050565b612a5781612a22565b8114612a6257600080fd5b50565b600081359050612a7481612a4e565b92915050565b600060208284031215612a9057612a8f612a18565b5b6000612a9e84828501612a65565b91505092915050565b60008115159050919050565b612abc81612aa7565b82525050565b6000602082019050612ad76000830184612ab3565b92915050565b600081519050919050565b600082825260208201905092915050565b60005b83811015612b17578082015181840152602081019050612afc565b60008484015250505050565b6000601f19601f8301169050919050565b6000612b3f82612add565b612b498185612ae8565b9350612b59818560208601612af9565b612b6281612b23565b840191505092915050565b60006020820190508181036000830152612b878184612b34565b905092915050565b6000819050919050565b612ba281612b8f565b8114612bad57600080fd5b50565b600081359050612bbf81612b99565b92915050565b600060208284031215612bdb57612bda612a18565b5b6000612be984828501612bb0565b91505092915050565b600073ffffffffffffffffffffffffffffffffffffffff82169050919050565b6000612c1d82612bf2565b9050919050565b612c2d81612c12565b82525050565b6000602082019050612c486000830184612c24565b92915050565b612c5781612c12565b8114612c6257600080fd5b50565b600081359050612c7481612c4e565b92915050565b60008060408385031215612c9157612c90612a18565b5b6000612c9f85828601612c65565b9250506020612cb085828601612bb0565b9150509250929050565b612cc381612b8f565b82525050565b6000602082019050612cde6000830184612cba565b92915050565b600080600060608486031215612cfd57612cfc612a18565b5b6000612d0b86828701612c65565b9350506020612d1c86828701612c65565b9250506040612d2d86828701612bb0565b9150509250925092565b60008060408385031215612d4e57612d4d612a18565b5b6000612d5c85828601612c65565b9250506020612d6d85828601612c65565b9150509250929050565b600080fd5b600080fd5b7f4e487b7100000000000000000000000000000000000000000000000000000000600052604160045260246000fd5b612db982612b23565b810181811067ffffffffffffffff82111715612dd857612dd7612d81565b5b80604052505050565b6000612deb612a0e565b9050612df78282612db0565b919050565b600067ffffffffffffffff821115612e1757612e16612d81565b5b612e2082612b23565b9050602081019050919050565b82818337600083830152505050565b6000612e4f612e4a84612dfc565b612de1565b905082815260208101848484011115612e6b57612e6a612d7c565b5b612e76848285612e2d565b509392505050565b600082601f830112612e9357612e92612d77565b5b8135612ea3848260208601612e3c565b91505092915050565b612eb581612aa7565b8114612ec057600080fd5b50565b600081359050612ed281612eac565b92915050565b600080600060608486031215612ef157612ef0612a18565b5b600084013567ffffffffffffffff811115612f0f57612f0e612a1d565b5b612f1b86828701612e7e565b935050602084013567ffffffffffffffff811115612f3c57612f3b612a1d565b5b612f4886828701612e7e565b9250506040612f5986828701612ec3565b9150509250925092565b600060208284031215612f7957612f78612a18565b5b6000612f8784828501612c65565b91505092915050565b600060208284031215612fa657612fa5612a18565b5b6000612fb484828501612ec3565b91505092915050565b60008060408385031215612fd457612fd3612a18565b5b6000612fe285828601612c65565b9250506020612ff385828601612ec3565b9150509250929050565b60006020828403121561301357613012612a18565b5b600082013567ffffffffffffffff81111561303157613030612a1d565b5b61303d84828501612e7e565b91505092915050565b600067ffffffffffffffff82111561306157613060612d81565b5b61306a82612b23565b9050602081019050919050565b600061308a61308584613046565b612de1565b9050828152602081018484840111156130a6576130a5612d7c565b5b6130b1848285612e2d565b509392505050565b600082601f8301126130ce576130cd612d77565b5b81356130de848260208601613077565b91505092915050565b6000806000806080858703121561310157613100612a18565b5b600061310f87828801612c65565b945050602061312087828801612c65565b935050604061313187828801612bb0565b925050606085013567ffffffffffffffff81111561315257613151612a1d565b5b61315e878288016130b9565b91505092959194509250565b7f4e487b7100000000000000000000000000000000000000000000000000000000600052602260045260246000fd5b600060028204905060018216806131b157607f821691505b6020821081036131c4576131c361316a565b5b50919050565b7f4552433732313a20617070726f76616c20746f2063757272656e74206f776e6560008201527f7200000000000000000000000000000000000000000000000000000000000000602082015250565b6000613226602183612ae8565b9150613231826131ca565b604082019050919050565b6000602082019050818103600083015261325581613219565b9050919050565b7f4552433732313a20617070726f76652063616c6c6572206973206e6f7420746f60008201527f6b656e206f776e6572206f7220617070726f76656420666f7220616c6c000000602082015250565b60006132b8603d83612ae8565b91506132c38261325c565b604082019050919050565b600060208201905081810360008301526132e7816132ab565b9050919050565b7f6e6f74207472616e7366657261626c6520746f6b656e00000000000000000000600082015250565b6000613324601683612ae8565b915061332f826132ee565b602082019050919050565b6000602082019050818103600083015261335381613317565b9050919050565b7f455243373231456e756d657261626c653a206f776e657220696e646578206f7560008201527f74206f6620626f756e6473000000000000000000000000000000000000000000602082015250565b60006133b6602b83612ae8565b91506133c18261335a565b604082019050919050565b600060208201905081810360008301526133e5816133a9565b9050919050565b7f6e6f20746f6b656e7320746f2077697468647261770000000000000000000000600082015250565b6000613422601583612ae8565b915061342d826133ec565b602082019050919050565b6000602082019050818103600083015261345181613415565b9050919050565b60008151905061346781612c4e565b92915050565b60006020828403121561348357613482612a18565b5b600061349184828501613458565b91505092915050565b7f6f6e6c79204e4654204469737472696275746f722063616e206d696e74204e4660008201527f5400000000000000000000000000000000000000000000000000000000000000602082015250565b60006134f6602183612ae8565b91506135018261349a565b604082019050919050565b60006020820190508181036000830152613525816134e9565b9050919050565b60008151905061353b81612eac565b92915050565b60006020828403121561355757613556612a18565b5b60006135658482850161352c565b91505092915050565b7f53747564656e74206973206e6f7420656c696769626c6520746f20636c61696d60008201527f20746865204e4654000000000000000000000000000000000000000000000000602082015250565b60006135ca602883612ae8565b91506135d58261356e565b604082019050919050565b600060208201905081810360008301526135f9816135bd565b9050919050565b60008190508160005260206000209050919050565b60006020601f8301049050919050565b600082821b905092915050565b6000600883026136627fffffffffffffffffffffffffffffffffffffffffffffffffffffffffffffffff82613625565b61366c8683613625565b95508019841693508086168417925050509392505050565b6000819050919050565b60006136a96136a461369f84612b8f565b613684565b612b8f565b9050919050565b6000819050919050565b6136c38361368e565b6136d76136cf826136b0565b848454613632565b825550505050565b600090565b6136ec6136df565b6136f78184846136ba565b505050565b5b8181101561371b576137106000826136e4565b6001810190506136fd565b5050565b601f8211156137605761373181613600565b61373a84613615565b81016020851015613749578190505b61375d61375585613615565b8301826136fc565b50505b505050565b600082821c905092915050565b600061378360001984600802613765565b1980831691505092915050565b600061379c8383613772565b9150826002028217905092915050565b6137b582612add565b67ffffffffffffffff8111156137ce576137cd612d81565b5b6137d88254613199565b6137e382828561371f565b600060209050601f8311600181146138165760008415613804578287015190505b61380e8582613790565b865550613876565b601f19841661382486613600565b60005b8281101561384c57848901518255600182019150602085019450602081019050613827565b868310156138695784890151613865601f891682613772565b8355505b6001600288020188555050505b505050505050565b7f455243373231456e756d657261626c653a20676c6f62616c20696e646578206f60008201527f7574206f6620626f756e64730000000000000000000000000000000000000000602082015250565b60006138da602c83612ae8565b91506138e58261387e565b604082019050919050565b60006020820190508181036000830152613909816138cd565b9050919050565b7f4e487b7100000000000000000000000000000000000000000000000000000000600052603260045260246000fd5b7f4552433732313a20696e76616c696420746f6b656e2049440000000000000000600082015250565b6000613975601883612ae8565b91506139808261393f565b602082019050919050565b600060208201905081810360008301526139a481613968565b9050919050565b7f4552433732313a2061646472657373207a65726f206973206e6f74206120766160008201527f6c6964206f776e65720000000000000000000000000000000000000000000000602082015250565b6000613a07602983612ae8565b9150613a12826139ab565b604082019050919050565b60006020820190508181036000830152613a36816139fa565b9050919050565b7f4f776e61626c653a206e6577206f776e657220697320746865207a65726f206160008201527f6464726573730000000000000000000000000000000000000000000000000000602082015250565b6000613a99602683612ae8565b9150613aa482613a3d565b604082019050919050565b60006020820190508181036000830152613ac881613a8c565b9050919050565b7f4552433732313a2063616c6c6572206973206e6f7420746f6b656e206f776e6560008201527f72206f7220617070726f76656400000000000000000000000000000000000000602082015250565b6000613b2b602d83612ae8565b9150613b3682613acf565b604082019050919050565b60006020820190508181036000830152613b5a81613b1e565b9050919050565b7f4f776e61626c653a2063616c6c6572206973206e6f7420746865206f776e6572600082015250565b6000613b97602083612ae8565b9150613ba282613b61565b602082019050919050565b60006020820190508181036000830152613bc681613b8a565b9050919050565b7f4552433732313a206d696e7420746f20746865207a65726f2061646472657373600082015250565b6000613c03602083612ae8565b9150613c0e82613bcd565b602082019050919050565b60006020820190508181036000830152613c3281613bf6565b9050919050565b7f4552433732313a20746f6b656e20616c7265616479206d696e74656400000000600082015250565b6000613c6f601c83612ae8565b9150613c7a82613c39565b602082019050919050565b60006020820190508181036000830152613c9e81613c62565b9050919050565b7f45524337323155524953746f726167653a2055524920736574206f66206e6f6e60008201527f6578697374656e7420746f6b656e000000000000000000000000000000000000602082015250565b6000613d01602e83612ae8565b9150613d0c82613ca5565b604082019050919050565b60006020820190508181036000830152613d3081613cf4565b9050919050565b7f4552433732313a20617070726f766520746f2063616c6c657200000000000000600082015250565b6000613d6d601983612ae8565b9150613d7882613d37565b602082019050919050565b60006020820190508181036000830152613d9c81613d60565b9050919050565b600081905092915050565b6000613db982612add565b613dc38185613da3565b9350613dd3818560208601612af9565b80840191505092915050565b6000613deb8285613dae565b9150613df78284613dae565b91508190509392505050565b7f4552433732313a207472616e736665722066726f6d20696e636f72726563742060008201527f6f776e6572000000000000000000000000000000000000000000000000000000602082015250565b6000613e5f602583612ae8565b9150613e6a82613e03565b604082019050919050565b60006020820190508181036000830152613e8e81613e52565b9050919050565b7f4552433732313a207472616e7366657220746f20746865207a65726f2061646460008201527f7265737300000000000000000000000000000000000000000000000000000000602082015250565b6000613ef1602483612ae8565b9150613efc82613e95565b604082019050919050565b60006020820190508181036000830152613f2081613ee4565b9050919050565b7f4552433732313a207472616e7366657220746f206e6f6e20455243373231526560008201527f63656976657220696d706c656d656e7465720000000000000000000000000000602082015250565b6000613f83603283612ae8565b9150613f8e82613f27565b604082019050919050565b60006020820190508181036000830152613fb281613f76565b9050919050565b7f455243373231456e756d657261626c653a20636f6e736563757469766520747260008201527f616e7366657273206e6f7420737570706f727465640000000000000000000000602082015250565b6000614015603583612ae8565b915061402082613fb9565b604082019050919050565b6000602082019050818103600083015261404481614008565b9050919050565b600081519050919050565b600082825260208201905092915050565b60006140728261404b565b61407c8185614056565b935061408c818560208601612af9565b61409581612b23565b840191505092915050565b60006080820190506140b56000830187612c24565b6140c26020830186612c24565b6140cf6040830185612cba565b81810360608301526140e18184614067565b905095945050505050565b6000815190506140fb81612a4e565b92915050565b60006020828403121561411757614116612a18565b5b6000614125848285016140ec565b91505092915050565b7f4e487b7100000000000000000000000000000000000000000000000000000000600052601260045260246000fd5b7f4e487b7100000000000000000000000000000000000000000000000000000000600052601160045260246000fd5b600061419782612b8f565b91506141a283612b8f565b92508282039050818111156141ba576141b961415d565b5b92915050565b60006141cb82612b8f565b91506141d683612b8f565b92508282019050808211156141ee576141ed61415d565b5b92915050565b7f4e487b7100000000000000000000000000000000000000000000000000000000600052603160045260246000fdfea2646970667358221220b3755751ae0d8625450cace45bc1d7bec5bd096f95744fbe31ecf7fa774fc69964736f6c63430008110033",
  "linkReferences": {},
  "deployedLinkReferences": {}
}